{
  "contractName": "DateTime",
  "abi": [
    {
      "anonymous": false,
      "inputs": [
        {
          "indexed": false,
          "name": "n",
          "type": "uint256"
        }
      ],
      "name": "Log",
      "type": "event"
    },
    {
      "constant": true,
      "inputs": [
        {
          "name": "year",
          "type": "uint16"
        }
      ],
      "name": "isLeapYear",
      "outputs": [
        {
          "name": "",
          "type": "bool"
        }
      ],
      "payable": false,
      "stateMutability": "view",
      "type": "function"
    },
    {
      "constant": true,
      "inputs": [
        {
          "name": "year",
          "type": "uint256"
        }
      ],
      "name": "leapYearsBefore",
      "outputs": [
        {
          "name": "",
          "type": "uint256"
        }
      ],
      "payable": false,
      "stateMutability": "view",
      "type": "function"
    },
    {
      "constant": true,
      "inputs": [
        {
          "name": "month",
          "type": "uint8"
        },
        {
          "name": "year",
          "type": "uint16"
        }
      ],
      "name": "getDaysInMonth",
      "outputs": [
        {
          "name": "",
          "type": "uint8"
        }
      ],
      "payable": false,
      "stateMutability": "view",
      "type": "function"
    },
    {
      "constant": true,
      "inputs": [
        {
          "name": "timestamp",
          "type": "uint256"
        }
      ],
      "name": "getYear",
      "outputs": [
        {
          "name": "",
          "type": "uint16"
        }
      ],
      "payable": false,
      "stateMutability": "view",
      "type": "function"
    },
    {
      "constant": true,
      "inputs": [
        {
          "name": "timestamp",
          "type": "uint256"
        }
      ],
      "name": "getMonth",
      "outputs": [
        {
          "name": "",
          "type": "uint8"
        }
      ],
      "payable": false,
      "stateMutability": "view",
      "type": "function"
    },
    {
      "constant": true,
      "inputs": [
        {
          "name": "timestamp",
          "type": "uint256"
        }
      ],
      "name": "getDay",
      "outputs": [
        {
          "name": "",
          "type": "uint8"
        }
      ],
      "payable": false,
      "stateMutability": "view",
      "type": "function"
    },
    {
      "constant": true,
      "inputs": [
        {
          "name": "timestamp",
          "type": "uint256"
        }
      ],
      "name": "getHour",
      "outputs": [
        {
          "name": "",
          "type": "uint8"
        }
      ],
      "payable": false,
      "stateMutability": "view",
      "type": "function"
    },
    {
      "constant": true,
      "inputs": [
        {
          "name": "timestamp",
          "type": "uint256"
        }
      ],
      "name": "getMinute",
      "outputs": [
        {
          "name": "",
          "type": "uint8"
        }
      ],
      "payable": false,
      "stateMutability": "view",
      "type": "function"
    },
    {
      "constant": true,
      "inputs": [
        {
          "name": "timestamp",
          "type": "uint256"
        }
      ],
      "name": "getSecond",
      "outputs": [
        {
          "name": "",
          "type": "uint8"
        }
      ],
      "payable": false,
      "stateMutability": "view",
      "type": "function"
    },
    {
      "constant": true,
      "inputs": [
        {
          "name": "timestamp",
          "type": "uint256"
        }
      ],
      "name": "getWeekday",
      "outputs": [
        {
          "name": "",
          "type": "uint8"
        }
      ],
      "payable": false,
      "stateMutability": "view",
      "type": "function"
    },
    {
      "constant": true,
      "inputs": [
        {
          "name": "year",
          "type": "uint16"
        },
        {
          "name": "month",
          "type": "uint8"
        },
        {
          "name": "day",
          "type": "uint8"
        },
        {
          "name": "hour",
          "type": "uint8"
        },
        {
          "name": "minute",
          "type": "uint8"
        }
      ],
      "name": "toTimestamp",
      "outputs": [
        {
          "name": "timestamp",
          "type": "uint256"
        }
      ],
      "payable": false,
      "stateMutability": "view",
      "type": "function"
    },
    {
      "constant": true,
      "inputs": [
        {
          "name": "year",
          "type": "uint16"
        },
        {
          "name": "month",
          "type": "uint8"
        },
        {
          "name": "day",
          "type": "uint8"
        }
      ],
      "name": "toTimestamp",
      "outputs": [
        {
          "name": "timestamp",
          "type": "uint256"
        }
      ],
      "payable": false,
      "stateMutability": "view",
      "type": "function"
    },
    {
      "constant": true,
      "inputs": [
        {
          "name": "year",
          "type": "uint16"
        },
        {
          "name": "month",
          "type": "uint8"
        },
        {
          "name": "day",
          "type": "uint8"
        },
        {
          "name": "hour",
          "type": "uint8"
        },
        {
          "name": "minute",
          "type": "uint8"
        },
        {
          "name": "second",
          "type": "uint8"
        }
      ],
      "name": "toTimestamp",
      "outputs": [
        {
          "name": "timestamp",
          "type": "uint256"
        }
      ],
      "payable": false,
      "stateMutability": "view",
      "type": "function"
    },
    {
      "constant": true,
      "inputs": [
        {
          "name": "year",
          "type": "uint16"
        },
        {
          "name": "month",
          "type": "uint8"
        },
        {
          "name": "day",
          "type": "uint8"
        },
        {
          "name": "hour",
          "type": "uint8"
        }
      ],
      "name": "toTimestamp",
      "outputs": [
        {
          "name": "timestamp",
          "type": "uint256"
        }
      ],
      "payable": false,
      "stateMutability": "view",
      "type": "function"
    },
    {
      "constant": true,
      "inputs": [
        {
          "name": "_month",
          "type": "string"
        }
      ],
      "name": "toMonth",
      "outputs": [
        {
          "name": "",
          "type": "uint8"
        }
      ],
      "payable": false,
      "stateMutability": "view",
      "type": "function"
    },
    {
      "constant": true,
      "inputs": [
        {
          "name": "_date",
          "type": "string"
        }
      ],
      "name": "parseDate",
      "outputs": [
        {
          "name": "",
          "type": "uint256"
        }
      ],
      "payable": false,
      "stateMutability": "view",
      "type": "function"
    }
  ],
  "bytecode": "0x611ddf610030600b82828239805160001a6073146000811461002057610022565bfe5b5030600052607381538281f30073000000000000000000000000000000000000000030146080604052600436106100fd576000357c0100000000000000000000000000000000000000000000000000000000900463ffffffff1680630c03f24a146101025780633e239e1a146101725780634ac1ad78146101ac57806362ba9687146101e657806365c72840146102525780637f7918331461028c5780638aa001fc146102eb5780638c8d98a0146103255780639054bdec1461037757806392d66313146103f05780639e976d381461042c578063a324ad24146104a2578063a6f0e577146104dc578063b199993714610518578063b238ad0e1461054c578063fa93f88314610597575b600080fd5b61015c600480360381019080803590602001908201803590602001908080601f01602080910402602001604051908101604052809392919081815260200183838082843782019150505050505091929192905050506105d1565b6040518082815260200191505060405180910390f35b610190600480360381019080803590602001909291905050506107ea565b604051808260ff1660ff16815260200191505060405180910390f35b6101ca60048036038101908080359060200190929190505050610817565b604051808260ff1660ff16815260200191505060405180910390f35b61023c600480360381019080803561ffff169060200190929190803560ff169060200190929190803560ff169060200190929190803560ff169060200190929190803560ff16906020019092919050505061083e565b6040518082815260200191505060405180910390f35b6102706004803603810190808035906020019092919050505061085a565b604051808260ff1660ff16815260200191505060405180910390f35b6102d5600480360381019080803561ffff169060200190929190803560ff169060200190929190803560ff169060200190929190803560ff169060200190929190505050610870565b6040518082815260200191505060405180910390f35b6103096004803603810190808035906020019092919050505061088b565b604051808260ff1660ff16815260200191505060405180910390f35b610361600480360381019080803561ffff169060200190929190803560ff169060200190929190803560ff1690602001909291905050506108a1565b6040518082815260200191505060405180910390f35b6103da600480360381019080803561ffff169060200190929190803560ff169060200190929190803560ff169060200190929190803560ff169060200190929190803560ff169060200190929190803560ff1690602001909291905050506108bc565b6040518082815260200191505060405180910390f35b61040e60048036038101908080359060200190929190505050610b63565b604051808261ffff1661ffff16815260200191505060405180910390f35b610486600480360381019080803590602001908201803590602001908080601f0160208091040260200160405190810160405280939291908181526020018383808284378201915050505050509192919290505050610c0e565b604051808260ff1660ff16815260200191505060405180910390f35b6104c060048036038101908080359060200190929190505050611456565b604051808260ff1660ff16815260200191505060405180910390f35b6104fe600480360381019080803561ffff16906020019092919050505061146c565b604051808215151515815260200191505060405180910390f35b610536600480360381019080803590602001909291905050506114ed565b6040518082815260200191505060405180910390f35b61057b600480360381019080803560ff169060200190929190803561ffff169060200190929190505050611526565b604051808260ff1660ff16815260200191505060405180910390f35b6105b5600480360381019080803590602001909291905050506115f2565b604051808260ff1660ff16815260200191505060405180910390f35b60006105db611d21565b6105e3611d21565b6105eb611d21565b6000806000806000806105fd8b611613565b985061063d6040805190810160405280600181526020017f2000000000000000000000000000000000000000000000000000000000000000815250611613565b975061067d6040805190810160405280600181526020017f3a00000000000000000000000000000000000000000000000000000000000000815250611613565b96506106cf6106c06040805190810160405280600181526020017f2c00000000000000000000000000000000000000000000000000000000000000815250611613565b8a61164190919063ffffffff16565b506106e3888a61164190919063ffffffff16565b506107096107026106fd8a8c61164190919063ffffffff16565b61165b565b60006116bd565b955061072e6107296107248a8c61164190919063ffffffff16565b61165b565b610c0e565b945061075561074e6107498a8c61164190919063ffffffff16565b61165b565b60006116bd565b935061077c610775610770898c61164190919063ffffffff16565b61165b565b60006116bd565b92506107a361079c610797898c61164190919063ffffffff16565b61165b565b60006116bd565b91506107ca6107c36107be898c61164190919063ffffffff16565b61165b565b60006116bd565b90506107da8486888686866108bc565b9950505050505050505050919050565b60006018603c80848115156107fb57fe5b0481151561080557fe5b0481151561080f57fe5b069050919050565b600060076004620151808481151561082b57fe5b040181151561083657fe5b069050919050565b600061084f868686868660006108bc565b905095945050505050565b6000610865826119b1565b604001519050919050565b6000610881858585856000806108bc565b9050949350505050565b6000603c8281151561089957fe5b069050919050565b60006108b384848460008060006108bc565b90509392505050565b6000806108c7611d3b565b6107b291505b8861ffff168261ffff161015610910576108e68261146c565b156108f9576301e2850083019250610903565b6301e13380830192505b81806001019250506108cd565b601f816000600c8110151561092157fe5b602002019060ff16908160ff168152505061093b8961146c565b1561096757601d816001600c8110151561095157fe5b602002019060ff16908160ff168152505061098a565b601c816001600c8110151561097857fe5b602002019060ff16908160ff16815250505b601f816002600c8110151561099b57fe5b602002019060ff16908160ff1681525050601e816003600c811015156109bd57fe5b602002019060ff16908160ff1681525050601f816004600c811015156109df57fe5b602002019060ff16908160ff1681525050601e816005600c81101515610a0157fe5b602002019060ff16908160ff1681525050601f816006600c81101515610a2357fe5b602002019060ff16908160ff1681525050601f816007600c81101515610a4557fe5b602002019060ff16908160ff1681525050601e816008600c81101515610a6757fe5b602002019060ff16908160ff1681525050601f816009600c81101515610a8957fe5b602002019060ff16908160ff1681525050601e81600a600c81101515610aab57fe5b602002019060ff16908160ff1681525050601f81600b600c81101515610acd57fe5b602002019060ff16908160ff1681525050600191505b8760ff168261ffff161015610b2557806001830361ffff16600c81101515610b0757fe5b602002015160ff166201518002830192508180600101925050610ae3565b6001870360ff166201518002830192508560ff16610e1002830192508460ff16603c02830192508360ff168301925082925050509695505050505050565b600080600080600092506301e1338085811515610b7c57fe5b046107b261ffff16019150610b966107b261ffff166114ed565b610ba38361ffff166114ed565b039050806301e285000283019250806107b2830361ffff16036301e1338002830192505b84831115610c0357610bdb6001830361146c565b15610bee576301e2850083039250610bf8565b6301e13380830392505b600182039150610bc7565b819350505050919050565b6000816040518082805190602001908083835b602083101515610c465780518252602082019150602081019050602083039250610c21565b6001836020036101000a03801982511681845116808217855250505050505090500191505060405180910390206000191660405180807f4a616e000000000000000000000000000000000000000000000000000000000081525060030190506040518091039020600019161415610cc05760019050611451565b816040518082805190602001908083835b602083101515610cf65780518252602082019150602081019050602083039250610cd1565b6001836020036101000a03801982511681845116808217855250505050505090500191505060405180910390206000191660405180807f466562000000000000000000000000000000000000000000000000000000000081525060030190506040518091039020600019161415610d705760029050611451565b816040518082805190602001908083835b602083101515610da65780518252602082019150602081019050602083039250610d81565b6001836020036101000a03801982511681845116808217855250505050505090500191505060405180910390206000191660405180807f4d6172000000000000000000000000000000000000000000000000000000000081525060030190506040518091039020600019161415610e205760039050611451565b816040518082805190602001908083835b602083101515610e565780518252602082019150602081019050602083039250610e31565b6001836020036101000a03801982511681845116808217855250505050505090500191505060405180910390206000191660405180807f417072000000000000000000000000000000000000000000000000000000000081525060030190506040518091039020600019161415610ed05760049050611451565b816040518082805190602001908083835b602083101515610f065780518252602082019150602081019050602083039250610ee1565b6001836020036101000a03801982511681845116808217855250505050505090500191505060405180910390206000191660405180807f4d6179000000000000000000000000000000000000000000000000000000000081525060030190506040518091039020600019161415610f805760059050611451565b816040518082805190602001908083835b602083101515610fb65780518252602082019150602081019050602083039250610f91565b6001836020036101000a03801982511681845116808217855250505050505090500191505060405180910390206000191660405180807f4a756e0000000000000000000000000000000000000000000000000000000000815250600301905060405180910390206000191614156110305760069050611451565b816040518082805190602001908083835b6020831015156110665780518252602082019150602081019050602083039250611041565b6001836020036101000a03801982511681845116808217855250505050505090500191505060405180910390206000191660405180807f4a756c0000000000000000000000000000000000000000000000000000000000815250600301905060405180910390206000191614156110e05760079050611451565b816040518082805190602001908083835b60208310151561111657805182526020820191506020810190506020830392506110f1565b6001836020036101000a03801982511681845116808217855250505050505090500191505060405180910390206000191660405180807f4175670000000000000000000000000000000000000000000000000000000000815250600301905060405180910390206000191614156111905760089050611451565b816040518082805190602001908083835b6020831015156111c657805182526020820191506020810190506020830392506111a1565b6001836020036101000a03801982511681845116808217855250505050505090500191505060405180910390206000191660405180807f5365700000000000000000000000000000000000000000000000000000000000815250600301905060405180910390206000191614156112405760099050611451565b816040518082805190602001908083835b6020831015156112765780518252602082019150602081019050602083039250611251565b6001836020036101000a03801982511681845116808217855250505050505090500191505060405180910390206000191660405180807f4f63740000000000000000000000000000000000000000000000000000000000815250600301905060405180910390206000191614156112f057600a9050611451565b816040518082805190602001908083835b6020831015156113265780518252602082019150602081019050602083039250611301565b6001836020036101000a03801982511681845116808217855250505050505090500191505060405180910390206000191660405180807f4e6f760000000000000000000000000000000000000000000000000000000000815250600301905060405180910390206000191614156113a057600b9050611451565b816040518082805190602001908083835b6020831015156113d657805182526020820191506020810190506020830392506113b1565b6001836020036101000a03801982511681845116808217855250505050505090500191505060405180910390206000191660405180807f44656300000000000000000000000000000000000000000000000000000000008152506003019050604051809103902060001916141561145057600c9050611451565b5b919050565b6000611461826119b1565b602001519050919050565b60008060048361ffff1681151561147f57fe5b0661ffff1614151561149457600090506114e8565b600060648361ffff168115156114a657fe5b0661ffff161415156114bb57600190506114e8565b60006101908361ffff168115156114ce57fe5b0661ffff161415156114e357600090506114e8565b600190505b919050565b60006001820391506101908281151561150257fe5b0460648381151561150f57fe5b0460048481151561151c57fe5b0403019050919050565b600060018360ff16148061153d575060038360ff16145b8061154b575060058360ff16145b80611559575060078360ff16145b80611567575060088360ff16145b806115755750600a8360ff16145b806115835750600c8360ff16145b1561159157601f90506115ec565b60048360ff1614806115a6575060068360ff16145b806115b4575060098360ff16145b806115c25750600b8360ff16145b156115d057601e90506115ec565b6115d98261146c565b156115e757601d90506115ec565b601c90505b92915050565b6000603c808381151561160157fe5b0481151561160b57fe5b069050919050565b61161b611d21565b600060208301905060408051908101604052808451815260200182815250915050919050565b611649611d21565b611654838383611b52565b5092915050565b606080600083600001516040519080825280601f01601f1916602001820160405280156116975781602001602082028038833980820191505090505b5091506020820190506116b38185602001518660000151611bf0565b8192505050919050565b6000606060008060008693506000925060009150600090505b83518110156119925760307f010000000000000000000000000000000000000000000000000000000000000002848281518110151561171157fe5b9060200101517f010000000000000000000000000000000000000000000000000000000000000090047f0100000000000000000000000000000000000000000000000000000000000000027effffffffffffffffffffffffffffffffffffffffffffffffffffffffffffff191610158015611829575060397f01000000000000000000000000000000000000000000000000000000000000000284828151811015156117b957fe5b9060200101517f010000000000000000000000000000000000000000000000000000000000000090047f0100000000000000000000000000000000000000000000000000000000000000027effffffffffffffffffffffffffffffffffffffffffffffffffffffffffffff191611155b156118da57811561184c57600086141561184257611992565b8580600190039650505b600a830292506030848281518110151561186257fe5b9060200101517f010000000000000000000000000000000000000000000000000000000000000090047f0100000000000000000000000000000000000000000000000000000000000000027f010000000000000000000000000000000000000000000000000000000000000090040383019250611985565b602e7f010000000000000000000000000000000000000000000000000000000000000002848281518110151561190c57fe5b9060200101517f010000000000000000000000000000000000000000000000000000000000000090047f0100000000000000000000000000000000000000000000000000000000000000027effffffffffffffffffffffffffffffffffffffffffffffffffffffffffffff1916141561198457600191505b5b80806001019150506116d6565b60008611156119a45785600a0a830292505b8294505050505092915050565b6119b9611d5f565b600080600080600093506119cc86610b63565b856000019061ffff16908161ffff16815250506119ee6107b261ffff166114ed565b6119ff866000015161ffff166114ed565b039250826301e285000284019350826107b286600001510361ffff16036301e133800284019350600191505b600c8260ff16111515611a8357611a46828660000151611526565b60ff1662015180029050858482011115611a715781856020019060ff16908160ff1681525050611a83565b80840193508180600101925050611a2b565b600191505b611a9a85602001518660000151611526565b60ff168260ff16111515611ae157858462015180011115611acc5781856040019060ff16908160ff1681525050611ae1565b62015180840193508180600101925050611a88565b611aea866107ea565b856060019060ff16908160ff1681525050611b04866115f2565b856080019060ff16908160ff1681525050611b1e8661088b565b8560a0019060ff16908160ff1681525050611b3886610817565b8560c0019060ff16908160ff168152505050505050919050565b611b5a611d21565b6000611b788560000151866020015186600001518760200151611c3b565b90508460200151836020018181525050846020015181038360000181815250508460000151856020015101811415611bba576000856000018181525050611be5565b8360000151836000015101856000018181510391508181525050836000015181018560200181815250505b829150509392505050565b60005b602082101515611c185782518452602084019350602083019250602082039150611bf3565b6001826020036101000a0390508019835116818551168181178652505050505050565b60008060008060008060008060008b97508c8b111515611d0b5760208b111515611cc55760018b60200360080260020a03196001029550858a511694508a8d8d010393508588511692505b84600019168360001916141515611cbd578388101515611caa578c8c019850611d11565b8780600101985050858851169250611c86565b879850611d11565b8a8a209150600096505b8a8d0387111515611d0a578a88209050806000191682600019161415611cf757879850611d11565b6001880197508680600101975050611ccf565b5b8c8c0198505b5050505050505050949350505050565b604080519081016040528060008152602001600081525090565b61018060405190810160405280600c90602082028038833980820191505090505090565b60e060405190810160405280600061ffff168152602001600060ff168152602001600060ff168152602001600060ff168152602001600060ff168152602001600060ff168152602001600060ff16815250905600a165627a7a72305820dcc831d5db251eb280a73735d645c22c4f0e63051b6238b4244c220ee1cddaa00029",
  "source": "import \"./strings.sol\";\n\nlibrary DateTime {\n        using strings for *;\n        event Log(uint n);\n        /*\n         *  Date and Time utilities for ethereum contracts\n         *\n         */\n        struct DateTime {\n                uint16 year;\n                uint8 month;\n                uint8 day;\n                uint8 hour;\n                uint8 minute;\n                uint8 second;\n                uint8 weekday;\n        }\n\n        uint constant DAY_IN_SECONDS = 86400;\n        uint constant YEAR_IN_SECONDS = 31536000;\n        uint constant LEAP_YEAR_IN_SECONDS = 31622400;\n\n        uint constant HOUR_IN_SECONDS = 3600;\n        uint constant MINUTE_IN_SECONDS = 60;\n\n        uint16 constant ORIGIN_YEAR = 1970;\n\n        function isLeapYear(uint16 year) constant returns (bool) {\n                if (year % 4 != 0) {\n                        return false;\n                }\n                if (year % 100 != 0) {\n                        return true;\n                }\n                if (year % 400 != 0) {\n                        return false;\n                }\n                return true;\n        }\n\n        function leapYearsBefore(uint year) constant returns (uint) {\n                year -= 1;\n                return year / 4 - year / 100 + year / 400;\n        }\n\n        function getDaysInMonth(uint8 month, uint16 year) constant returns (uint8) {\n                if (month == 1 || month == 3 || month == 5 || month == 7 || month == 8 || month == 10 || month == 12) {\n                        return 31;\n                }\n                else if (month == 4 || month == 6 || month == 9 || month == 11) {\n                        return 30;\n                }\n                else if (isLeapYear(year)) {\n                        return 29;\n                }\n                else {\n                        return 28;\n                }\n        }\n\n        function parseTimestamp(uint timestamp) internal returns (DateTime dt) {\n                uint secondsAccountedFor = 0;\n                uint buf;\n                uint8 i;\n\n                // Year\n                dt.year = getYear(timestamp);\n                buf = leapYearsBefore(dt.year) - leapYearsBefore(ORIGIN_YEAR);\n\n                secondsAccountedFor += LEAP_YEAR_IN_SECONDS * buf;\n                secondsAccountedFor += YEAR_IN_SECONDS * (dt.year - ORIGIN_YEAR - buf);\n\n                // Month\n                uint secondsInMonth;\n                for (i = 1; i <= 12; i++) {\n                        secondsInMonth = DAY_IN_SECONDS * getDaysInMonth(i, dt.year);\n                        if (secondsInMonth + secondsAccountedFor > timestamp) {\n                                dt.month = i;\n                                break;\n                        }\n                        secondsAccountedFor += secondsInMonth;\n                }\n\n                // Day\n                for (i = 1; i <= getDaysInMonth(dt.month, dt.year); i++) {\n                        if (DAY_IN_SECONDS + secondsAccountedFor > timestamp) {\n                                dt.day = i;\n                                break;\n                        }\n                        secondsAccountedFor += DAY_IN_SECONDS;\n                }\n\n                // Hour\n                dt.hour = getHour(timestamp);\n\n                // Minute\n                dt.minute = getMinute(timestamp);\n\n                // Second\n                dt.second = getSecond(timestamp);\n\n                // Day of week.\n                dt.weekday = getWeekday(timestamp);\n        }\n\n        function getYear(uint timestamp) constant returns (uint16) {\n                uint secondsAccountedFor = 0;\n                uint16 year;\n                uint numLeapYears;\n\n                // Year\n                year = uint16(ORIGIN_YEAR + timestamp / YEAR_IN_SECONDS);\n                numLeapYears = leapYearsBefore(year) - leapYearsBefore(ORIGIN_YEAR);\n\n                secondsAccountedFor += LEAP_YEAR_IN_SECONDS * numLeapYears;\n                secondsAccountedFor += YEAR_IN_SECONDS * (year - ORIGIN_YEAR - numLeapYears);\n\n                while (secondsAccountedFor > timestamp) {\n                        if (isLeapYear(uint16(year - 1))) {\n                                secondsAccountedFor -= LEAP_YEAR_IN_SECONDS;\n                        }\n                        else {\n                                secondsAccountedFor -= YEAR_IN_SECONDS;\n                        }\n                        year -= 1;\n                }\n                return year;\n        }\n\n        function getMonth(uint timestamp) constant returns (uint8) {\n                return parseTimestamp(timestamp).month;\n        }\n\n        function getDay(uint timestamp) constant returns (uint8) {\n                return parseTimestamp(timestamp).day;\n        }\n\n        function getHour(uint timestamp) constant returns (uint8) {\n                return uint8((timestamp / 60 / 60) % 24);\n        }\n\n        function getMinute(uint timestamp) constant returns (uint8) {\n                return uint8((timestamp / 60) % 60);\n        }\n\n        function getSecond(uint timestamp) constant returns (uint8) {\n                return uint8(timestamp % 60);\n        }\n\n        function getWeekday(uint timestamp) constant returns (uint8) {\n                return uint8((timestamp / DAY_IN_SECONDS + 4) % 7);\n        }\n\n        function toTimestamp(uint16 year, uint8 month, uint8 day) constant returns (uint timestamp) {\n                return toTimestamp(year, month, day, 0, 0, 0);\n        }\n\n        function toTimestamp(uint16 year, uint8 month, uint8 day, uint8 hour) constant returns (uint timestamp) {\n                return toTimestamp(year, month, day, hour, 0, 0);\n        }\n\n        function toTimestamp(uint16 year, uint8 month, uint8 day, uint8 hour, uint8 minute) constant returns (uint timestamp) {\n                return toTimestamp(year, month, day, hour, minute, 0);\n        }\n\n        function toTimestamp(uint16 year, uint8 month, uint8 day, uint8 hour, uint8 minute, uint8 second) constant returns (uint timestamp) {\n                uint16 i;\n\n                // Year\n                for (i = ORIGIN_YEAR; i < year; i++) {\n                        if (isLeapYear(i)) {\n                                timestamp += LEAP_YEAR_IN_SECONDS;\n                        }\n                        else {\n                                timestamp += YEAR_IN_SECONDS;\n                        }\n                }\n\n                // Month\n                uint8[12] memory monthDayCounts;\n                monthDayCounts[0] = 31;\n                if (isLeapYear(year)) {\n                        monthDayCounts[1] = 29;\n                }\n                else {\n                        monthDayCounts[1] = 28;\n                }\n                monthDayCounts[2] = 31;\n                monthDayCounts[3] = 30;\n                monthDayCounts[4] = 31;\n                monthDayCounts[5] = 30;\n                monthDayCounts[6] = 31;\n                monthDayCounts[7] = 31;\n                monthDayCounts[8] = 30;\n                monthDayCounts[9] = 31;\n                monthDayCounts[10] = 30;\n                monthDayCounts[11] = 31;\n\n                for (i = 1; i < month; i++) {\n                        timestamp += DAY_IN_SECONDS * monthDayCounts[i - 1];\n                }\n\n                // Day\n                timestamp += DAY_IN_SECONDS * (day - 1);\n\n                // Hour\n                timestamp += HOUR_IN_SECONDS * (hour);\n\n                // Minute\n                timestamp += MINUTE_IN_SECONDS * (minute);\n\n                // Second\n                timestamp += second;\n\n                return timestamp;\n        }\n\n        function toMonth(string _month) constant returns(uint8) {\n            if (sha3(\"Jan\") == sha3(_month)) {\n                return 1;\n            }\n            if (sha3(\"Feb\") == sha3(_month)) {\n                return 2;\n            }\n            if (sha3(\"Mar\") == sha3(_month)) {\n                return 3;\n            }\n            if (sha3(\"Apr\") == sha3(_month)) {\n                return 4;\n            }\n            if (sha3(\"May\") == sha3(_month)) {\n                return 5;\n            }\n            if (sha3(\"Jun\") == sha3(_month)) {\n                return 6;\n            }\n            if (sha3(\"Jul\") == sha3(_month)) {\n                return 7;\n            }\n            if (sha3(\"Aug\") == sha3(_month)) {\n                return 8;\n            }\n            if (sha3(\"Sep\") == sha3(_month)) {\n                return 9;\n            }\n            if (sha3(\"Oct\") == sha3(_month)) {\n                return 10;\n            }\n            if (sha3(\"Nov\") == sha3(_month)) {\n                return 11;\n            }\n            if (sha3(\"Dec\") == sha3(_month)) {\n                return 12;\n            }\n        }\n\n        function parseInt(string _a, uint _b) internal returns (uint) {\n            bytes memory bresult = bytes(_a);\n            uint mint = 0;\n            bool decimals = false;\n            for (uint i=0; i<bresult.length; i++){\n                if ((bresult[i] >= 48)&&(bresult[i] <= 57)){\n                    if (decimals){\n                       if (_b == 0) break;\n                        else _b--;\n                    }\n                    mint *= 10;\n                    mint += uint(bresult[i]) - 48;\n                } else if (bresult[i] == 46) decimals = true;\n            }\n            if (_b > 0) mint *= 10**_b;\n            return mint;\n        }\n\n        // Parse Date in IMF-fixdate format\n        // Tue, 04 Apr 2017 11:12:58 GMT\n          function parseDate(string _date) public constant returns(uint) {\n            var s = _date.toSlice();\n            var delim = \" \".toSlice();\n            var timeDelim = \":\".toSlice();\n            //Cut out week day\n            s.split(\",\".toSlice());\n            //Cut out first space\n            s.split(delim);\n            // Get day\n            uint8 day = uint8(parseInt(s.split(delim).toString(),0));\n            uint8 month = toMonth(s.split(delim).toString());\n            uint16 year = uint16(parseInt(s.split(delim).toString(), 0));\n            uint8 hour = uint8(parseInt(s.split(timeDelim).toString(),0));\n            uint8 minute = uint8(parseInt(s.split(timeDelim).toString(),0));\n            uint8 second = uint8(parseInt(s.split(timeDelim).toString(),0));\n            return toTimestamp(year, month, day, hour, minute, second);\n        }\n}\n",
  "sourcePath": "/Users/yannis/Desktop/Token/smart-contracts/price-feed/contracts/DateTime.sol",
  "compiler": {
    "name": "solc",
    "version": "0.4.24+commit.e67f0147.Emscripten.clang"
  },
  "schemaVersion": "2.0.1",
  "updatedAt": "2018-08-02T17:19:36.874Z"
}