{
  "contractName": "PriceFeed",
  "abi": [
    {
      "constant": true,
      "inputs": [],
      "name": "TKNETH",
      "outputs": [
        {
          "name": "",
          "type": "string"
        }
      ],
      "payable": false,
      "stateMutability": "view",
      "type": "function"
    },
    {
      "inputs": [],
      "payable": true,
      "stateMutability": "payable",
      "type": "constructor"
    },
    {
      "anonymous": false,
      "inputs": [
        {
          "indexed": false,
          "name": "nextStep",
          "type": "string"
        }
      ],
      "name": "LogConstructorInitiated",
      "type": "event"
    },
    {
      "anonymous": false,
      "inputs": [
        {
          "indexed": false,
          "name": "price",
          "type": "string"
        }
      ],
      "name": "LogRateUpdated",
      "type": "event"
    },
    {
      "anonymous": false,
      "inputs": [
        {
          "indexed": false,
          "name": "description",
          "type": "string"
        }
      ],
      "name": "LogNewOraclizeQuery",
      "type": "event"
    },
    {
      "constant": false,
      "inputs": [
        {
          "name": "myid",
          "type": "bytes32"
        },
        {
          "name": "result",
          "type": "string"
        }
      ],
      "name": "__callback",
      "outputs": [],
      "payable": false,
      "stateMutability": "nonpayable",
      "type": "function"
    },
    {
      "constant": false,
      "inputs": [
        {
          "name": "queryId",
          "type": "bytes32"
        },
        {
          "name": "result",
          "type": "string"
        },
        {
          "name": "proof",
          "type": "bytes"
        }
      ],
      "name": "__callback",
      "outputs": [],
      "payable": false,
      "stateMutability": "nonpayable",
      "type": "function"
    },
    {
      "constant": false,
      "inputs": [],
      "name": "updateRate",
      "outputs": [],
      "payable": true,
      "stateMutability": "payable",
      "type": "function"
    }
  ],
  "bytecode": "0x6080604052736f485c8bf6fc43ea212e93bbf8ce046c7f1cb4756000806101000a81548173ffffffffffffffffffffffffffffffffffffffff021916908373ffffffffffffffffffffffffffffffffffffffff1602179055506200009560f07f010000000000000000000000000000000000000000000000000000000000000002620001c4640100000000026401000000009004565b606060405190810160405280604081526020017fa0f4f688350018ad1b9785991c0bde5f704b005dc79972b114dbed4a615a983781526020017f10bfc647ebe5a320daa28771dce6a2d104f5efa2e4a85ba3760b76d46f8571ca815250600790805190602001906200010992919062000b19565b507f11a3fca63f87bd67d7f9f72b744acc8be2193705e7a734ac3a773d35d259e87b60405180806020018281038252604a8152602001807f436f6e7374727563746f722077617320696e697469617465642e2043616c6c2081526020017f277570646174655261746528292720746f2073656e6420746865204f7261636c81526020017f697a652051756572792e0000000000000000000000000000000000000000000081525060600191505060405180910390a162000c4f565b60008060009054906101000a900473ffffffffffffffffffffffffffffffffffffffff1673ffffffffffffffffffffffffffffffffffffffff1614806200024557506000620002436000809054906101000a900473ffffffffffffffffffffffffffffffffffffffff1662000578640100000000026401000000009004565b145b15620002685762000266600062000583640100000000026401000000009004565b505b6000809054906101000a900473ffffffffffffffffffffffffffffffffffffffff1673ffffffffffffffffffffffffffffffffffffffff166338cc48316040518163ffffffff167c0100000000000000000000000000000000000000000000000000000000028152600401602060405180830381600087803b158015620002ee57600080fd5b505af115801562000303573d6000803e3d6000fd5b505050506040513d60208110156200031a57600080fd5b810190808051906020019092919050505073ffffffffffffffffffffffffffffffffffffffff16600160009054906101000a900473ffffffffffffffffffffffffffffffffffffffff1673ffffffffffffffffffffffffffffffffffffffff1614151562000486576000809054906101000a900473ffffffffffffffffffffffffffffffffffffffff1673ffffffffffffffffffffffffffffffffffffffff166338cc48316040518163ffffffff167c0100000000000000000000000000000000000000000000000000000000028152600401602060405180830381600087803b1580156200040857600080fd5b505af11580156200041d573d6000803e3d6000fd5b505050506040513d60208110156200043457600080fd5b8101908080519060200190929190505050600160006101000a81548173ffffffffffffffffffffffffffffffffffffffff021916908373ffffffffffffffffffffffffffffffffffffffff1602179055505b600160009054906101000a900473ffffffffffffffffffffffffffffffffffffffff1673ffffffffffffffffffffffffffffffffffffffff1663688dcfd7826040518263ffffffff167c010000000000000000000000000000000000000000000000000000000002815260040180827effffffffffffffffffffffffffffffffffffffffffffffffffffffffffffff19167effffffffffffffffffffffffffffffffffffffffffffffffffffffffffffff19168152602001915050600060405180830381600087803b1580156200055c57600080fd5b505af115801562000571573d6000803e3d6000fd5b5050505050565b6000813b9050919050565b60006200059e620005a5640100000000026401000000009004565b9050919050565b600080620005d6731d3b2638a7cc9f2cb3d298a3da7a90b67e5506ed62000578640100000000026401000000009004565b11156200068a57731d3b2638a7cc9f2cb3d298a3da7a90b67e5506ed6000806101000a81548173ffffffffffffffffffffffffffffffffffffffff021916908373ffffffffffffffffffffffffffffffffffffffff160217905550620006806040805190810160405280600b81526020017f6574685f6d61696e6e657400000000000000000000000000000000000000000081525062000afd640100000000026401000000009004565b6001905062000afa565b6000620006ba73c03a2615d5efaf5f49f60b7bb6583eaec212fdf162000578640100000000026401000000009004565b11156200076e5773c03a2615d5efaf5f49f60b7bb6583eaec212fdf16000806101000a81548173ffffffffffffffffffffffffffffffffffffffff021916908373ffffffffffffffffffffffffffffffffffffffff160217905550620007646040805190810160405280600c81526020017f6574685f726f707374656e33000000000000000000000000000000000000000081525062000afd640100000000026401000000009004565b6001905062000afa565b60006200079e73b7a07bcf2ba2f2703b24c0691b5278999c59ac7e62000578640100000000026401000000009004565b1115620008525773b7a07bcf2ba2f2703b24c0691b5278999c59ac7e6000806101000a81548173ffffffffffffffffffffffffffffffffffffffff021916908373ffffffffffffffffffffffffffffffffffffffff160217905550620008486040805190810160405280600981526020017f6574685f6b6f76616e000000000000000000000000000000000000000000000081525062000afd640100000000026401000000009004565b6001905062000afa565b60006200088273146500cfd35b22e4a392fe0adc06de1a1368ed4862000578640100000000026401000000009004565b1115620009365773146500cfd35b22e4a392fe0adc06de1a1368ed486000806101000a81548173ffffffffffffffffffffffffffffffffffffffff021916908373ffffffffffffffffffffffffffffffffffffffff1602179055506200092c6040805190810160405280600b81526020017f6574685f72696e6b65627900000000000000000000000000000000000000000081525062000afd640100000000026401000000009004565b6001905062000afa565b600062000966736f485c8bf6fc43ea212e93bbf8ce046c7f1cb47562000578640100000000026401000000009004565b1115620009cb57736f485c8bf6fc43ea212e93bbf8ce046c7f1cb4756000806101000a81548173ffffffffffffffffffffffffffffffffffffffff021916908373ffffffffffffffffffffffffffffffffffffffff1602179055506001905062000afa565b6000620009fb7320e12a1f859b3feae5fb2a0a32c18f5a65555bbf62000578640100000000026401000000009004565b111562000a60577320e12a1f859b3feae5fb2a0a32c18f5a65555bbf6000806101000a81548173ffffffffffffffffffffffffffffffffffffffff021916908373ffffffffffffffffffffffffffffffffffffffff1602179055506001905062000afa565b600062000a907351efaf4c8b3c9afbd5ab9f4bbc82784ab6ef8faa62000578640100000000026401000000009004565b111562000af5577351efaf4c8b3c9afbd5ab9f4bbc82784ab6ef8faa6000806101000a81548173ffffffffffffffffffffffffffffffffffffffff021916908373ffffffffffffffffffffffffffffffffffffffff1602179055506001905062000afa565b600090505b90565b806002908051906020019062000b1592919062000ba0565b5050565b828054600181600116156101000203166002900490600052602060002090601f016020900481019282601f1062000b5c57805160ff191683800117855562000b8d565b8280016001018555821562000b8d579182015b8281111562000b8c57825182559160200191906001019062000b6f565b5b50905062000b9c919062000c27565b5090565b828054600181600116156101000203166002900490600052602060002090601f016020900481019282601f1062000be357805160ff191683800117855562000c14565b8280016001018555821562000c14579182015b8281111562000c1357825182559160200191906001019062000bf6565b5b50905062000c23919062000c27565b5090565b62000c4c91905b8082111562000c4857600081600090555060010162000c2e565b5090565b90565b6131958062000c5f6000396000f300608060405260043610610062576000357c0100000000000000000000000000000000000000000000000000000000900463ffffffff16806327dc297e1461006757806338bbfa50146100de5780638f9e1d811461019b578063c7fee63e1461022b575b600080fd5b34801561007357600080fd5b506100dc6004803603810190808035600019169060200190929190803590602001908201803590602001908080601f0160208091040260200160405190810160405280939291908181526020018383808284378201915050505050509192919290505050610235565b005b3480156100ea57600080fd5b506101996004803603810190808035600019169060200190929190803590602001908201803590602001908080601f0160208091040260200160405190810160405280939291908181526020018383808284378201915050505050509192919290803590602001908201803590602001908080601f0160208091040260200160405190810160405280939291908181526020018383808284378201915050505050509192919290505050610278565b005b3480156101a757600080fd5b506101b06104e0565b6040518080602001828103825283818151815260200191508051906020019080838360005b838110156101f05780820151818401526020810190506101d5565b50505050905090810190601f16801561021d5780820380516001836020036101000a031916815260200191505b509250505060405180910390f35b61023361057e565b005b610274828260006040519080825280601f01601f19166020018201604052801561026e5781602001602082028038833980820191505090505b50610278565b5050565b61028061081e565b73ffffffffffffffffffffffffffffffffffffffff163373ffffffffffffffffffffffffffffffffffffffff161415156102b957600080fd5b60056000846000191660001916815260200190815260200160002060009054906101000a900460ff1615156102ed57600080fd5b6000815111801561039f575061039e828260078054600181600116156101000203166002900480601f0160208091040260200160405190810160405280929190818152602001828054600181600116156101000203166002900480156103945780601f1061036957610100808354040283529160200191610394565b820191906000526020600020905b81548152906001019060200180831161037757829003601f168201915b5050505050610b7c565b5b156103f25781600690805190602001906103ba9291906130c4565b5060056000846000191660001916815260200190815260200160002060006101000a81549060ff02191690554260088190555061043f565b6040805190810160405280600581526020017f4552524f520000000000000000000000000000000000000000000000000000008152506006908051906020019061043d9291906130c4565b505b7fe5cadafd4c3d8c384ef1e163b6fafac97b4a6b745a20b05da91560e0678a97af826040518080602001828103825283818151815260200191508051906020019080838360005b838110156104a1578082015181840152602081019050610486565b50505050905090810190601f1680156104ce5780820380516001836020036101000a031916815260200191505b509250505060405180910390a1505050565b60068054600181600116156101000203166002900480601f0160208091040260200160405190810160405280929190818152602001828054600181600116156101000203166002900480156105765780601f1061054b57610100808354040283529160200191610576565b820191906000526020600020905b81548152906001019060200180831161055957829003601f168201915b505050505081565b60003073ffffffffffffffffffffffffffffffffffffffff16316105d66040805190810160405280600381526020017f55524c00000000000000000000000000000000000000000000000000000000008152506110f6565b1115610695577f621c2856e3b87f81235f8ac8a22bbb40a0142961960710d00b2b6c380902b57e60405180806020018281038252604b8152602001807f4f7261636c697a6520717565727920776173204e4f542073656e742c20706c6581526020017f6173652061646420736f6d652045544820746f20636f76657220666f7220746881526020017f652071756572792066656500000000000000000000000000000000000000000081525060600191505060405180910390a161081b565b6107566040805190810160405280600381526020017f55524c0000000000000000000000000000000000000000000000000000000000815250608060405190810160405280604981526020017f68747470733a2f2f6d696e2d6170692e63727970746f636f6d706172652e636f81526020017f6d2f646174612f70726963653f6673796d3d544b4e267473796d733d4554482681526020017f7369676e3d7472756500000000000000000000000000000000000000000000008152506114c6565b9050600160056000836000191660001916815260200190815260200160002060006101000a81548160ff0219169083151502179055507f621c2856e3b87f81235f8ac8a22bbb40a0142961960710d00b2b6c380902b57e6040518080602001828103825260368152602001807f4f7261636c697a65207175657279207761732073656e742c207374616e64696e81526020017f6720627920666f722074686520616e737765722e2e2e0000000000000000000081525060400191505060405180910390a15b50565b6000806000809054906101000a900473ffffffffffffffffffffffffffffffffffffffff1673ffffffffffffffffffffffffffffffffffffffff16148061088e5750600061088c6000809054906101000a900473ffffffffffffffffffffffffffffffffffffffff16611a68565b145b1561089f5761089d6000611a73565b505b6000809054906101000a900473ffffffffffffffffffffffffffffffffffffffff1673ffffffffffffffffffffffffffffffffffffffff166338cc48316040518163ffffffff167c0100000000000000000000000000000000000000000000000000000000028152600401602060405180830381600087803b15801561092457600080fd5b505af1158015610938573d6000803e3d6000fd5b505050506040513d602081101561094e57600080fd5b810190808051906020019092919050505073ffffffffffffffffffffffffffffffffffffffff16600160009054906101000a900473ffffffffffffffffffffffffffffffffffffffff1673ffffffffffffffffffffffffffffffffffffffff16141515610ab6576000809054906101000a900473ffffffffffffffffffffffffffffffffffffffff1673ffffffffffffffffffffffffffffffffffffffff166338cc48316040518163ffffffff167c0100000000000000000000000000000000000000000000000000000000028152600401602060405180830381600087803b158015610a3a57600080fd5b505af1158015610a4e573d6000803e3d6000fd5b505050506040513d6020811015610a6457600080fd5b8101908080519060200190929190505050600160006101000a81548173ffffffffffffffffffffffffffffffffffffffff021916908373ffffffffffffffffffffffffffffffffffffffff1602179055505b600160009054906101000a900473ffffffffffffffffffffffffffffffffffffffff1673ffffffffffffffffffffffffffffffffffffffff1663c281d19e6040518163ffffffff167c0100000000000000000000000000000000000000000000000000000000028152600401602060405180830381600087803b158015610b3c57600080fd5b505af1158015610b50573d6000803e3d6000fd5b505050506040513d6020811015610b6657600080fd5b8101908080519060200190929190505050905090565b6000806060600060608060606000806000808c6001815181101515610b9d57fe5b9060200101517f010000000000000000000000000000000000000000000000000000000000000090047f0100000000000000000000000000000000000000000000000000000000000000027f010000000000000000000000000000000000000000000000000000000000000090049950896040519080825280601f01601f191660200182016040528015610c405781602001602082028038833980820191505090505b509850610c528d60028c8c6000611a84565b98508c60018b60020101815181101515610c6857fe5b9060200101517f010000000000000000000000000000000000000000000000000000000000000090047f0100000000000000000000000000000000000000000000000000000000000000027f010000000000000000000000000000000000000000000000000000000000000090046101008e8c600201815181101515610cea57fe5b9060200101517f010000000000000000000000000000000000000000000000000000000000000090047f0100000000000000000000000000000000000000000000000000000000000000027f0100000000000000000000000000000000000000000000000000000000000000900402019750876040519080825280601f01601f191660200182016040528015610d8f5781602001602082028038833980820191505090505b509650610da38d8b6004018a8a6000611a84565b9650601e6040519080825280601f01601f191660200182016040528015610dd95781602001602082028038833980820191505090505b509550610dec876005601e896000611a84565b9550603488036040519080825280601f01601f191660200182016040528015610e245781602001602082028038833980820191505090505b509450610e38876034808b03886000611a84565b9450610e4386611ae4565b9350831515610e555760009a506110e5565b610e5e85611c12565b6040518082805190602001908083835b602083101515610e935780518252602082019150602081019050602083039250610e6e565b6001836020036101000a03801982511681845116808217855250505050505090500191505060405180910390206000191660028f6040518082805190602001908083835b602083101515610efc5780518252602082019150602081019050602083039250610ed7565b6001836020036101000a0380198251168184511680821785525050505050509050019150506020604051808303816000865af1158015610f40573d6000803e3d6000fd5b5050506040513d6020811015610f5557600080fd5b8101908080519060200190929190505050604051808260001916600019168152602001915050604051809103902060001916149250821515610f9a5760009a506110e5565b6110456002886040518082805190602001908083835b602083101515610fd55780518252602082019150602081019050602083039250610fb0565b6001836020036101000a0380198251168184511680821785525050505050509050019150506020604051808303816000865af1158015611019573d6000803e3d6000fd5b5050506040513d602081101561102e57600080fd5b81019080805190602001909291905050508a612b43565b80925081935050508b6040518082805190602001908083835b602083101515611083578051825260208201915060208101905060208303925061105e565b6001836020036101000a03801982511681845116808217855250505050505090500191505060405180910390206001900473ffffffffffffffffffffffffffffffffffffffff168173ffffffffffffffffffffffffffffffffffffffff16149a505b505050505050505050509392505050565b6000806000809054906101000a900473ffffffffffffffffffffffffffffffffffffffff1673ffffffffffffffffffffffffffffffffffffffff161480611166575060006111646000809054906101000a900473ffffffffffffffffffffffffffffffffffffffff16611a68565b145b15611177576111756000611a73565b505b6000809054906101000a900473ffffffffffffffffffffffffffffffffffffffff1673ffffffffffffffffffffffffffffffffffffffff166338cc48316040518163ffffffff167c0100000000000000000000000000000000000000000000000000000000028152600401602060405180830381600087803b1580156111fc57600080fd5b505af1158015611210573d6000803e3d6000fd5b505050506040513d602081101561122657600080fd5b810190808051906020019092919050505073ffffffffffffffffffffffffffffffffffffffff16600160009054906101000a900473ffffffffffffffffffffffffffffffffffffffff1673ffffffffffffffffffffffffffffffffffffffff1614151561138e576000809054906101000a900473ffffffffffffffffffffffffffffffffffffffff1673ffffffffffffffffffffffffffffffffffffffff166338cc48316040518163ffffffff167c0100000000000000000000000000000000000000000000000000000000028152600401602060405180830381600087803b15801561131257600080fd5b505af1158015611326573d6000803e3d6000fd5b505050506040513d602081101561133c57600080fd5b8101908080519060200190929190505050600160006101000a81548173ffffffffffffffffffffffffffffffffffffffff021916908373ffffffffffffffffffffffffffffffffffffffff1602179055505b600160009054906101000a900473ffffffffffffffffffffffffffffffffffffffff1673ffffffffffffffffffffffffffffffffffffffff1663524f3889836040518263ffffffff167c01000000000000000000000000000000000000000000000000000000000281526004018080602001828103825283818151815260200191508051906020019080838360005b8381101561143857808201518184015260208101905061141d565b50505050905090810190601f1680156114655780820380516001836020036101000a031916815260200191505b5092505050602060405180830381600087803b15801561148457600080fd5b505af1158015611498573d6000803e3d6000fd5b505050506040513d60208110156114ae57600080fd5b81019080805190602001909291905050509050919050565b60008060008060009054906101000a900473ffffffffffffffffffffffffffffffffffffffff1673ffffffffffffffffffffffffffffffffffffffff161480611538575060006115366000809054906101000a900473ffffffffffffffffffffffffffffffffffffffff16611a68565b145b15611549576115476000611a73565b505b6000809054906101000a900473ffffffffffffffffffffffffffffffffffffffff1673ffffffffffffffffffffffffffffffffffffffff166338cc48316040518163ffffffff167c0100000000000000000000000000000000000000000000000000000000028152600401602060405180830381600087803b1580156115ce57600080fd5b505af11580156115e2573d6000803e3d6000fd5b505050506040513d60208110156115f857600080fd5b810190808051906020019092919050505073ffffffffffffffffffffffffffffffffffffffff16600160009054906101000a900473ffffffffffffffffffffffffffffffffffffffff1673ffffffffffffffffffffffffffffffffffffffff16141515611760576000809054906101000a900473ffffffffffffffffffffffffffffffffffffffff1673ffffffffffffffffffffffffffffffffffffffff166338cc48316040518163ffffffff167c0100000000000000000000000000000000000000000000000000000000028152600401602060405180830381600087803b1580156116e457600080fd5b505af11580156116f8573d6000803e3d6000fd5b505050506040513d602081101561170e57600080fd5b8101908080519060200190929190505050600160006101000a81548173ffffffffffffffffffffffffffffffffffffffff021916908373ffffffffffffffffffffffffffffffffffffffff1602179055505b600160009054906101000a900473ffffffffffffffffffffffffffffffffffffffff1673ffffffffffffffffffffffffffffffffffffffff1663524f3889856040518263ffffffff167c01000000000000000000000000000000000000000000000000000000000281526004018080602001828103825283818151815260200191508051906020019080838360005b8381101561180a5780820151818401526020810190506117ef565b50505050905090810190601f1680156118375780820380516001836020036101000a031916815260200191505b5092505050602060405180830381600087803b15801561185657600080fd5b505af115801561186a573d6000803e3d6000fd5b505050506040513d602081101561188057600080fd5b8101908080519060200190929190505050905062030d403a02670de0b6b3a7640000018111156118b65760006001029150611a61565b600160009054906101000a900473ffffffffffffffffffffffffffffffffffffffff1673ffffffffffffffffffffffffffffffffffffffff1663adf59f9982600087876040518563ffffffff167c0100000000000000000000000000000000000000000000000000000000028152600401808481526020018060200180602001838103835285818151815260200191508051906020019080838360005b8381101561196e578082015181840152602081019050611953565b50505050905090810190601f16801561199b5780820380516001836020036101000a031916815260200191505b50838103825284818151815260200191508051906020019080838360005b838110156119d45780820151818401526020810190506119b9565b50505050905090810190601f168015611a015780820380516001836020036101000a031916815260200191505b50955050505050506020604051808303818588803b158015611a2257600080fd5b505af1158015611a36573d6000803e3d6000fd5b50505050506040513d6020811015611a4d57600080fd5b810190808051906020019092919050505091505b5092915050565b6000813b9050919050565b6000611a7d612bd7565b9050919050565b60606000806000848701925082865110151515611aa057600080fd5b8760200191508460200190505b868860200101821015611ad55781890151808288015250602082019150602081019050611aad565b85935050505095945050505050565b60008073__DateTime______________________________630c03f24a846040518263ffffffff167c01000000000000000000000000000000000000000000000000000000000281526004018080602001828103825283818151815260200191508051906020019080838360005b83811015611b6d578082015181840152602081019050611b52565b50505050905090810190601f168015611b9a5780820380516001836020036101000a031916815260200191505b509250505060206040518083038186803b158015611bb757600080fd5b505af4158015611bcb573d6000803e3d6000fd5b505050506040513d6020811015611be157600080fd5b81019080805190602001909291905050509050600854811115611c075760019150611c0c565b600091505b50919050565b606060008060008060006060600060606000808b519550856040519080825280601f01601f191660200182016040528015611c5c5781602001602082028038833980820191505090505b50945060a060405190810160405280607b815260200160008152602001743e003e003f3435363738393a3b3c3d00000000000081526020017d0102030405060708090a0b0c0d0e0f10111213141516171819000000003f81526020017e1a1b1c1d1e1f202122232425262728292a2b2c2d2e2f303132330000000000815250925060405180807f3d0000000000000000000000000000000000000000000000000000000000000081525060010190506040518091039020600019168c60028803815181101515611d2857fe5b9060200101517f010000000000000000000000000000000000000000000000000000000000000090047f01000000000000000000000000000000000000000000000000000000000000000260405180827effffffffffffffffffffffffffffffffffffffffffffffffffffffffffffff19167effffffffffffffffffffffffffffffffffffffffffffffffffffffffffffff191681526001019150506040518091039020600019161415611de157600286039550611ee2565b60405180807f3d0000000000000000000000000000000000000000000000000000000000000081525060010190506040518091039020600019168c60018803815181101515611e2c57fe5b9060200101517f010000000000000000000000000000000000000000000000000000000000000090047f01000000000000000000000000000000000000000000000000000000000000000260405180827effffffffffffffffffffffffffffffffffffffffffffffffffffffffffffff19167effffffffffffffffffffffffffffffffffffffffffffffffffffffffffffff191681526001019150506040518091039020600019161415611ee1576001860395505b5b600280879060020a90049060020a029150600090505b8181101561248857828c82806001019350815181101515611f1557fe5b9060200101517f010000000000000000000000000000000000000000000000000000000000000090047f0100000000000000000000000000000000000000000000000000000000000000027f01000000000000000000000000000000000000000000000000000000000000009004815181101515611f8f57fe5b9060200101517f010000000000000000000000000000000000000000000000000000000000000090047f0100000000000000000000000000000000000000000000000000000000000000029950828c82806001019350815181101515611ff157fe5b9060200101517f010000000000000000000000000000000000000000000000000000000000000090047f0100000000000000000000000000000000000000000000000000000000000000027f0100000000000000000000000000000000000000000000000000000000000000900481518110151561206b57fe5b9060200101517f010000000000000000000000000000000000000000000000000000000000000090047f0100000000000000000000000000000000000000000000000000000000000000029850828c828060010193508151811015156120cd57fe5b9060200101517f010000000000000000000000000000000000000000000000000000000000000090047f0100000000000000000000000000000000000000000000000000000000000000027f0100000000000000000000000000000000000000000000000000000000000000900481518110151561214757fe5b9060200101517f010000000000000000000000000000000000000000000000000000000000000090047f0100000000000000000000000000000000000000000000000000000000000000029750828c828060010193508151811015156121a957fe5b9060200101517f010000000000000000000000000000000000000000000000000000000000000090047f0100000000000000000000000000000000000000000000000000000000000000027f0100000000000000000000000000000000000000000000000000000000000000900481518110151561222357fe5b9060200101517f010000000000000000000000000000000000000000000000000000000000000090047f010000000000000000000000000000000000000000000000000000000000000002965060ff7f01000000000000000000000000000000000000000000000000000000000000000260048a7effffffffffffffffffffffffffffffffffffffffffffffffffffffffffffff19169060020a900460028c7effffffffffffffffffffffffffffffffffffffffffffffffffffffffffffff19169060020a02171685858060010196508151811015156122ff57fe5b9060200101907effffffffffffffffffffffffffffffffffffffffffffffffffffffffffffff1916908160001a90535060ff7f0100000000000000000000000000000000000000000000000000000000000000026002897effffffffffffffffffffffffffffffffffffffffffffffffffffffffffffff19169060020a900460048b7effffffffffffffffffffffffffffffffffffffffffffffffffffffffffffff19169060020a02171685858060010196508151811015156123be57fe5b9060200101907effffffffffffffffffffffffffffffffffffffffffffffffffffffffffffff1916908160001a90535060ff7f0100000000000000000000000000000000000000000000000000000000000000028760068a7effffffffffffffffffffffffffffffffffffffffffffffffffffffffffffff19169060020a021716858580600101965081518110151561245357fe5b9060200101907effffffffffffffffffffffffffffffffffffffffffffffffffffffffffffff1916908160001a905350611ef8565b6002828703141561270f57828c828060010193508151811015156124a857fe5b9060200101517f010000000000000000000000000000000000000000000000000000000000000090047f0100000000000000000000000000000000000000000000000000000000000000027f0100000000000000000000000000000000000000000000000000000000000000900481518110151561252257fe5b9060200101517f010000000000000000000000000000000000000000000000000000000000000090047f0100000000000000000000000000000000000000000000000000000000000000029950828c8280600101935081518110151561258457fe5b9060200101517f010000000000000000000000000000000000000000000000000000000000000090047f0100000000000000000000000000000000000000000000000000000000000000027f010000000000000000000000000000000000000000000000000000000000000090048151811015156125fe57fe5b9060200101517f010000000000000000000000000000000000000000000000000000000000000090047f010000000000000000000000000000000000000000000000000000000000000002985060ff7f01000000000000000000000000000000000000000000000000000000000000000260048a7effffffffffffffffffffffffffffffffffffffffffffffffffffffffffffff19169060020a900460028c7effffffffffffffffffffffffffffffffffffffffffffffffffffffffffffff19169060020a02171685858060010196508151811015156126da57fe5b9060200101907effffffffffffffffffffffffffffffffffffffffffffffffffffffffffffff1916908160001a905350612b2e565b60038287031415612b2d57828c8280600101935081518110151561272f57fe5b9060200101517f010000000000000000000000000000000000000000000000000000000000000090047f0100000000000000000000000000000000000000000000000000000000000000027f010000000000000000000000000000000000000000000000000000000000000090048151811015156127a957fe5b9060200101517f010000000000000000000000000000000000000000000000000000000000000090047f0100000000000000000000000000000000000000000000000000000000000000029950828c8280600101935081518110151561280b57fe5b9060200101517f010000000000000000000000000000000000000000000000000000000000000090047f0100000000000000000000000000000000000000000000000000000000000000027f0100000000000000000000000000000000000000000000000000000000000000900481518110151561288557fe5b9060200101517f010000000000000000000000000000000000000000000000000000000000000090047f0100000000000000000000000000000000000000000000000000000000000000029850828c828060010193508151811015156128e757fe5b9060200101517f010000000000000000000000000000000000000000000000000000000000000090047f0100000000000000000000000000000000000000000000000000000000000000027f0100000000000000000000000000000000000000000000000000000000000000900481518110151561296157fe5b9060200101517f010000000000000000000000000000000000000000000000000000000000000090047f010000000000000000000000000000000000000000000000000000000000000002975060ff7f01000000000000000000000000000000000000000000000000000000000000000260048a7effffffffffffffffffffffffffffffffffffffffffffffffffffffffffffff19169060020a900460028c7effffffffffffffffffffffffffffffffffffffffffffffffffffffffffffff19169060020a0217168585806001019650815181101515612a3d57fe5b9060200101907effffffffffffffffffffffffffffffffffffffffffffffffffffffffffffff1916908160001a90535060ff7f0100000000000000000000000000000000000000000000000000000000000000026002897effffffffffffffffffffffffffffffffffffffffffffffffffffffffffffff19169060020a900460048b7effffffffffffffffffffffffffffffffffffffffffffffffffffffffffffff19169060020a0217168585806001019650815181101515612afc57fe5b9060200101907effffffffffffffffffffffffffffffffffffffffffffffffffffffffffffff1916908160001a9053505b5b838552849a5050505050505050505050919050565b600080600080600060418651141515612b655760008080905094509450612bcd565b6020860151925060408601519150606086015160001a9050601b8160ff161015612b9057601b810190505b601b8160ff1614158015612ba85750601c8160ff1614155b15612bbc5760008080905094509450612bcd565b612bc887828585613066565b945094505b5050509250929050565b600080612bf7731d3b2638a7cc9f2cb3d298a3da7a90b67e5506ed611a68565b1115612c9857731d3b2638a7cc9f2cb3d298a3da7a90b67e5506ed6000806101000a81548173ffffffffffffffffffffffffffffffffffffffff021916908373ffffffffffffffffffffffffffffffffffffffff160217905550612c8f6040805190810160405280600b81526020017f6574685f6d61696e6e65740000000000000000000000000000000000000000008152506130aa565b60019050613063565b6000612cb773c03a2615d5efaf5f49f60b7bb6583eaec212fdf1611a68565b1115612d585773c03a2615d5efaf5f49f60b7bb6583eaec212fdf16000806101000a81548173ffffffffffffffffffffffffffffffffffffffff021916908373ffffffffffffffffffffffffffffffffffffffff160217905550612d4f6040805190810160405280600c81526020017f6574685f726f707374656e3300000000000000000000000000000000000000008152506130aa565b60019050613063565b6000612d7773b7a07bcf2ba2f2703b24c0691b5278999c59ac7e611a68565b1115612e185773b7a07bcf2ba2f2703b24c0691b5278999c59ac7e6000806101000a81548173ffffffffffffffffffffffffffffffffffffffff021916908373ffffffffffffffffffffffffffffffffffffffff160217905550612e0f6040805190810160405280600981526020017f6574685f6b6f76616e00000000000000000000000000000000000000000000008152506130aa565b60019050613063565b6000612e3773146500cfd35b22e4a392fe0adc06de1a1368ed48611a68565b1115612ed85773146500cfd35b22e4a392fe0adc06de1a1368ed486000806101000a81548173ffffffffffffffffffffffffffffffffffffffff021916908373ffffffffffffffffffffffffffffffffffffffff160217905550612ecf6040805190810160405280600b81526020017f6574685f72696e6b6562790000000000000000000000000000000000000000008152506130aa565b60019050613063565b6000612ef7736f485c8bf6fc43ea212e93bbf8ce046c7f1cb475611a68565b1115612f5a57736f485c8bf6fc43ea212e93bbf8ce046c7f1cb4756000806101000a81548173ffffffffffffffffffffffffffffffffffffffff021916908373ffffffffffffffffffffffffffffffffffffffff16021790555060019050613063565b6000612f797320e12a1f859b3feae5fb2a0a32c18f5a65555bbf611a68565b1115612fdc577320e12a1f859b3feae5fb2a0a32c18f5a65555bbf6000806101000a81548173ffffffffffffffffffffffffffffffffffffffff021916908373ffffffffffffffffffffffffffffffffffffffff16021790555060019050613063565b6000612ffb7351efaf4c8b3c9afbd5ab9f4bbc82784ab6ef8faa611a68565b111561305e577351efaf4c8b3c9afbd5ab9f4bbc82784ab6ef8faa6000806101000a81548173ffffffffffffffffffffffffffffffffffffffff021916908373ffffffffffffffffffffffffffffffffffffffff16021790555060019050613063565b600090505b90565b60008060008060405188815287602082015286604082015285606082015260208160808360006001610bb8f192508051915050818193509350505094509492505050565b80600290805190602001906130c09291906130c4565b5050565b828054600181600116156101000203166002900490600052602060002090601f016020900481019282601f1061310557805160ff1916838001178555613133565b82800160010185558215613133579182015b82811115613132578251825591602001919060010190613117565b5b5090506131409190613144565b5090565b61316691905b8082111561316257600081600090555060010161314a565b5090565b905600a165627a7a723058205c5c3368d83963ad412452306346136917ee38e2d1f51f6c74ef38ce7158d9590029",
  "source": "pragma solidity ^0.4.18;\n\n/* import \"github.com/oraclize/ethereum-api/oraclizeAPI.sol\"; */\nimport './OraclizeAPI.sol';\nimport './DateTime.sol';\n\ncontract b64 {\n\n    function b64decode(bytes s) internal returns (bytes) {\n        byte v1;\n        byte v2;\n        byte v3;\n        byte v4;\n\n        //bytes memory s = bytes(_s);\n        uint length = s.length;\n        bytes memory result = new bytes(length);\n\n        uint index;\n\n        bytes memory BASE64_DECODE_CHAR = hex\"000000000000000000000000000000000000000000000000000000000000000000000000000000000000003e003e003f3435363738393a3b3c3d00000000000000000102030405060708090a0b0c0d0e0f10111213141516171819000000003f001a1b1c1d1e1f202122232425262728292a2b2c2d2e2f30313233\";\n        //MAP[chr]\n        if (sha3(s[length - 2]) == sha3('=')) {\n            length -= 2;\n        } else if (sha3(s[length - 1]) == sha3('=')) {\n            length -= 1;\n        }\n\n        uint count = length >> 2 << 2;\n\n        for (uint i = 0; i < count;) {\n            v1 = BASE64_DECODE_CHAR[uint(s[i++])];\n            v2 = BASE64_DECODE_CHAR[uint(s[i++])];\n            v3 = BASE64_DECODE_CHAR[uint(s[i++])];\n            v4 = BASE64_DECODE_CHAR[uint(s[i++])];\n\n\n            result[index++] = (v1 << 2 | v2 >> 4) & 255;\n            result[index++] = (v2 << 4 | v3 >> 2) & 255;\n            result[index++] = (v3 << 6 | v4) & 255;\n        }\n\n       if (length - count == 2) {\n            v1 = BASE64_DECODE_CHAR[uint(s[i++])];\n            v2 = BASE64_DECODE_CHAR[uint(s[i++])];\n            result[index++] = (v1 << 2 | v2 >> 4) & 255;\n        }\n        else if (length - count == 3) {\n            v1 = BASE64_DECODE_CHAR[uint(s[i++])];\n            v2 = BASE64_DECODE_CHAR[uint(s[i++])];\n            v3 = BASE64_DECODE_CHAR[uint(s[i++])];\n\n            result[index++] = (v1 << 2 | v2 >> 4) & 255;\n            result[index++] = (v2 << 4 | v3 >> 2) & 255;\n        }\n\n        // set to correct length\n        assembly {\n            mstore(result, index)\n        }\n\n        //debug(result);\n        //res = result;\n        return result;\n    }\n}\n\ncontract PriceFeed is usingOraclize, b64{\n\n    event LogConstructorInitiated(string nextStep);\n    event LogRateUpdated(string price);\n    event LogNewOraclizeQuery(string description);\n\n    mapping (bytes32 => bool) validIDs;\n    string public TKNETH;\n\n    bytes cc_pubkey;\n    uint last_update_timestamp;\n\n    modifier onlyOraclize {\n        require(msg.sender == oraclize_cbAddress());\n        _;\n    }\n\n    constructor() public payable {\n        OAR = OraclizeAddrResolverI(0x6f485C8BF6fc43eA212E93BBF8ce046C7f1cb475);\n        oraclize_setProof(proofType_Native);\n        cc_pubkey = hex\"a0f4f688350018ad1b9785991c0bde5f704b005dc79972b114dbed4a615a983710bfc647ebe5a320daa28771dce6a2d104f5efa2e4a85ba3760b76d46f8571ca\";\n        // updateRate();\n        emit LogConstructorInitiated(\"Constructor was initiated. Call 'updateRate()' to send the Oraclize Query.\");\n\n    }\n\n    /* The native proof is considered valid if the HTTP Date Header has a timestamp\n    *  subsequent to the timestamp of execution of the last Oraclize callback,\n    *  which is the time when the price data was updated.\n    *  This check prevents Oraclize from doing replay attacks on the signed data.\n    */\n    function isFresh(string _dateHeader) internal constant returns(bool) {\n        uint timestamp = DateTime.parseDate(_dateHeader);\n\n        if (timestamp > last_update_timestamp) {\n            return true;\n        }\n        return false;\n    }\n\n    function nativeProof_verify(string result, bytes proof, bytes pubkey) private returns (bool) {\n          uint sig_len = uint(proof[1]);\n          bytes memory sig = new bytes(sig_len);\n          sig = copyBytes(proof, 2, sig_len, sig, 0);\n          uint headers_len = uint(proof[2+sig_len])*256 + uint(proof[2+sig_len+1]);\n          bytes memory headers = new bytes(headers_len);\n          headers = copyBytes(proof, 4+sig_len, headers_len, headers, 0);\n          bytes memory dateHeader = new bytes(30);\n          dateHeader = copyBytes(headers, 5, 30, dateHeader, 0);\n          bytes memory digest = new bytes(headers_len-52); //len(\"digest: SHA-256=\")=16\n          digest = copyBytes(headers, 52, headers_len-52, digest, 0);\n          //Freshness\n          bool dateok = isFresh(string(dateHeader));\n          if (!dateok) return false;\n          //Integrity\n          bool digestok = (sha3(sha256(result)) == sha3(b64decode(digest)));\n          if (!digestok) return false;\n          //Authenticitys\n          bool sigok;\n          address signer;\n          (sigok, signer) = ecrecovery(sha256(headers), sig);\n          return (signer == address(sha3(pubkey)));\n      }\n\n    function __callback(bytes32 queryId, string result, bytes proof) public onlyOraclize{\n        require(validIDs[queryId]);\n        if ((proof.length > 0) && (nativeProof_verify(result, proof, cc_pubkey))) {\n          TKNETH = result;\n          delete validIDs[queryId];\n          last_update_timestamp = now;\n        }\n        else{\n          TKNETH = \"ERROR\";\n        }\n        emit LogRateUpdated(result);\n    }\n\n    function updateRate() public payable{\n        if (oraclize_getPrice(\"URL\") > address(this).balance){\n            emit LogNewOraclizeQuery(\"Oraclize query was NOT sent, please add some ETH to cover for the query fee\");\n        }\n        else{\n            bytes32 queryId = oraclize_query(\"URL\",\"https://min-api.cryptocompare.com/data/price?fsym=TKN&tsyms=ETH&sign=true\");\n            validIDs[queryId] = true;\n            emit LogNewOraclizeQuery(\"Oraclize query was sent, standing by for the answer...\");\n        }\n    }\n\n}\n",
  "sourcePath": "/Users/yannis/Desktop/Token/smart-contracts/price-feed/contracts/PriceFeed.sol",
  "compiler": {
    "name": "solc",
    "version": "0.4.24+commit.e67f0147.Emscripten.clang"
  },
  "schemaVersion": "2.0.1",
  "updatedAt": "2018-08-02T17:19:36.854Z"
}