{
  "contractName": "TKN_Orcacle",
  "abi": [
    {
      "constant": true,
      "inputs": [],
      "name": "TKNETH",
      "outputs": [
        {
          "name": "",
          "type": "string"
        }
      ],
      "payable": false,
      "stateMutability": "view",
      "type": "function"
    },
    {
      "inputs": [],
      "payable": true,
      "stateMutability": "payable",
      "type": "constructor"
    },
    {
      "anonymous": false,
      "inputs": [
        {
          "indexed": false,
          "name": "nextStep",
          "type": "string"
        }
      ],
      "name": "LogConstructorInitiated",
      "type": "event"
    },
    {
      "anonymous": false,
      "inputs": [
        {
          "indexed": false,
          "name": "price",
          "type": "string"
        }
      ],
      "name": "LogRateUpdated",
      "type": "event"
    },
    {
      "anonymous": false,
      "inputs": [
        {
          "indexed": false,
          "name": "description",
          "type": "string"
        }
      ],
      "name": "LogNewOraclizeQuery",
      "type": "event"
    },
    {
      "constant": false,
      "inputs": [
        {
          "name": "myid",
          "type": "bytes32"
        },
        {
          "name": "result",
          "type": "string"
        }
      ],
      "name": "__callback",
      "outputs": [],
      "payable": false,
      "stateMutability": "nonpayable",
      "type": "function"
    },
    {
      "constant": false,
      "inputs": [
        {
          "name": "queryId",
          "type": "bytes32"
        },
        {
          "name": "result",
          "type": "string"
        },
        {
          "name": "proof",
          "type": "bytes"
        }
      ],
      "name": "__callback",
      "outputs": [],
      "payable": false,
      "stateMutability": "nonpayable",
      "type": "function"
    },
    {
      "constant": false,
      "inputs": [],
      "name": "updateRate",
      "outputs": [],
      "payable": true,
      "stateMutability": "payable",
      "type": "function"
    }
  ],
  "bytecode": "0x6080604052736f485c8bf6fc43ea212e93bbf8ce046c7f1cb4756000806101000a81548173ffffffffffffffffffffffffffffffffffffffff021916908373ffffffffffffffffffffffffffffffffffffffff1602179055506200009560f07f010000000000000000000000000000000000000000000000000000000000000002620001c4640100000000026401000000009004565b606060405190810160405280604081526020017fa0f4f688350018ad1b9785991c0bde5f704b005dc79972b114dbed4a615a983781526020017f10bfc647ebe5a320daa28771dce6a2d104f5efa2e4a85ba3760b76d46f8571ca815250600790805190602001906200010992919062000b19565b507f11a3fca63f87bd67d7f9f72b744acc8be2193705e7a734ac3a773d35d259e87b60405180806020018281038252604a8152602001807f436f6e7374727563746f722077617320696e697469617465642e2043616c6c2081526020017f277570646174655261746528292720746f2073656e6420746865204f7261636c81526020017f697a652051756572792e0000000000000000000000000000000000000000000081525060600191505060405180910390a162000c4f565b60008060009054906101000a900473ffffffffffffffffffffffffffffffffffffffff1673ffffffffffffffffffffffffffffffffffffffff1614806200024557506000620002436000809054906101000a900473ffffffffffffffffffffffffffffffffffffffff1662000578640100000000026401000000009004565b145b15620002685762000266600062000583640100000000026401000000009004565b505b6000809054906101000a900473ffffffffffffffffffffffffffffffffffffffff1673ffffffffffffffffffffffffffffffffffffffff166338cc48316040518163ffffffff167c0100000000000000000000000000000000000000000000000000000000028152600401602060405180830381600087803b158015620002ee57600080fd5b505af115801562000303573d6000803e3d6000fd5b505050506040513d60208110156200031a57600080fd5b810190808051906020019092919050505073ffffffffffffffffffffffffffffffffffffffff16600160009054906101000a900473ffffffffffffffffffffffffffffffffffffffff1673ffffffffffffffffffffffffffffffffffffffff1614151562000486576000809054906101000a900473ffffffffffffffffffffffffffffffffffffffff1673ffffffffffffffffffffffffffffffffffffffff166338cc48316040518163ffffffff167c0100000000000000000000000000000000000000000000000000000000028152600401602060405180830381600087803b1580156200040857600080fd5b505af11580156200041d573d6000803e3d6000fd5b505050506040513d60208110156200043457600080fd5b8101908080519060200190929190505050600160006101000a81548173ffffffffffffffffffffffffffffffffffffffff021916908373ffffffffffffffffffffffffffffffffffffffff1602179055505b600160009054906101000a900473ffffffffffffffffffffffffffffffffffffffff1673ffffffffffffffffffffffffffffffffffffffff1663688dcfd7826040518263ffffffff167c010000000000000000000000000000000000000000000000000000000002815260040180827effffffffffffffffffffffffffffffffffffffffffffffffffffffffffffff19167effffffffffffffffffffffffffffffffffffffffffffffffffffffffffffff19168152602001915050600060405180830381600087803b1580156200055c57600080fd5b505af115801562000571573d6000803e3d6000fd5b5050505050565b6000813b9050919050565b60006200059e620005a5640100000000026401000000009004565b9050919050565b600080620005d6731d3b2638a7cc9f2cb3d298a3da7a90b67e5506ed62000578640100000000026401000000009004565b11156200068a57731d3b2638a7cc9f2cb3d298a3da7a90b67e5506ed6000806101000a81548173ffffffffffffffffffffffffffffffffffffffff021916908373ffffffffffffffffffffffffffffffffffffffff160217905550620006806040805190810160405280600b81526020017f6574685f6d61696e6e657400000000000000000000000000000000000000000081525062000afd640100000000026401000000009004565b6001905062000afa565b6000620006ba73c03a2615d5efaf5f49f60b7bb6583eaec212fdf162000578640100000000026401000000009004565b11156200076e5773c03a2615d5efaf5f49f60b7bb6583eaec212fdf16000806101000a81548173ffffffffffffffffffffffffffffffffffffffff021916908373ffffffffffffffffffffffffffffffffffffffff160217905550620007646040805190810160405280600c81526020017f6574685f726f707374656e33000000000000000000000000000000000000000081525062000afd640100000000026401000000009004565b6001905062000afa565b60006200079e73b7a07bcf2ba2f2703b24c0691b5278999c59ac7e62000578640100000000026401000000009004565b1115620008525773b7a07bcf2ba2f2703b24c0691b5278999c59ac7e6000806101000a81548173ffffffffffffffffffffffffffffffffffffffff021916908373ffffffffffffffffffffffffffffffffffffffff160217905550620008486040805190810160405280600981526020017f6574685f6b6f76616e000000000000000000000000000000000000000000000081525062000afd640100000000026401000000009004565b6001905062000afa565b60006200088273146500cfd35b22e4a392fe0adc06de1a1368ed4862000578640100000000026401000000009004565b1115620009365773146500cfd35b22e4a392fe0adc06de1a1368ed486000806101000a81548173ffffffffffffffffffffffffffffffffffffffff021916908373ffffffffffffffffffffffffffffffffffffffff1602179055506200092c6040805190810160405280600b81526020017f6574685f72696e6b65627900000000000000000000000000000000000000000081525062000afd640100000000026401000000009004565b6001905062000afa565b600062000966736f485c8bf6fc43ea212e93bbf8ce046c7f1cb47562000578640100000000026401000000009004565b1115620009cb57736f485c8bf6fc43ea212e93bbf8ce046c7f1cb4756000806101000a81548173ffffffffffffffffffffffffffffffffffffffff021916908373ffffffffffffffffffffffffffffffffffffffff1602179055506001905062000afa565b6000620009fb7320e12a1f859b3feae5fb2a0a32c18f5a65555bbf62000578640100000000026401000000009004565b111562000a60577320e12a1f859b3feae5fb2a0a32c18f5a65555bbf6000806101000a81548173ffffffffffffffffffffffffffffffffffffffff021916908373ffffffffffffffffffffffffffffffffffffffff1602179055506001905062000afa565b600062000a907351efaf4c8b3c9afbd5ab9f4bbc82784ab6ef8faa62000578640100000000026401000000009004565b111562000af5577351efaf4c8b3c9afbd5ab9f4bbc82784ab6ef8faa6000806101000a81548173ffffffffffffffffffffffffffffffffffffffff021916908373ffffffffffffffffffffffffffffffffffffffff1602179055506001905062000afa565b600090505b90565b806002908051906020019062000b1592919062000ba0565b5050565b828054600181600116156101000203166002900490600052602060002090601f016020900481019282601f1062000b5c57805160ff191683800117855562000b8d565b8280016001018555821562000b8d579182015b8281111562000b8c57825182559160200191906001019062000b6f565b5b50905062000b9c919062000c27565b5090565b828054600181600116156101000203166002900490600052602060002090601f016020900481019282601f1062000be357805160ff191683800117855562000c14565b8280016001018555821562000c14579182015b8281111562000c1357825182559160200191906001019062000bf6565b5b50905062000c23919062000c27565b5090565b62000c4c91905b8082111562000c4857600081600090555060010162000c2e565b5090565b90565b611fb68062000c5f6000396000f300608060405260043610610062576000357c0100000000000000000000000000000000000000000000000000000000900463ffffffff16806327dc297e1461006757806338bbfa50146100de5780638f9e1d811461019b578063c7fee63e1461022b575b600080fd5b34801561007357600080fd5b506100dc6004803603810190808035600019169060200190929190803590602001908201803590602001908080601f0160208091040260200160405190810160405280939291908181526020018383808284378201915050505050509192919290505050610235565b005b3480156100ea57600080fd5b506101996004803603810190808035600019169060200190929190803590602001908201803590602001908080601f0160208091040260200160405190810160405280939291908181526020018383808284378201915050505050509192919290803590602001908201803590602001908080601f0160208091040260200160405190810160405280939291908181526020018383808284378201915050505050509192919290505050610278565b005b3480156101a757600080fd5b506101b06104d9565b6040518080602001828103825283818151815260200191508051906020019080838360005b838110156101f05780820151818401526020810190506101d5565b50505050905090810190601f16801561021d5780820380516001836020036101000a031916815260200191505b509250505060405180910390f35b610233610577565b005b610274828260006040519080825280601f01601f19166020018201604052801561026e5781602001602082028038833980820191505090505b50610278565b5050565b610280610817565b73ffffffffffffffffffffffffffffffffffffffff163373ffffffffffffffffffffffffffffffffffffffff161415156102b957600080fd5b60056000846000191660001916815260200190815260200160002060009054906101000a900460ff1615156102ed57600080fd5b6000815111801561039f575061039e828260078054600181600116156101000203166002900480601f0160208091040260200160405190810160405280929190818152602001828054600181600116156101000203166002900480156103945780601f1061036957610100808354040283529160200191610394565b820191906000526020600020905b81548152906001019060200180831161037757829003601f168201915b5050505050610b75565b5b156103eb5781600690805190602001906103ba929190611ee5565b5060056000846000191660001916815260200190815260200160002060006101000a81549060ff0219169055610438565b6040805190810160405280600581526020017f4552524f5200000000000000000000000000000000000000000000000000000081525060069080519060200190610436929190611ee5565b505b7fe5cadafd4c3d8c384ef1e163b6fafac97b4a6b745a20b05da91560e0678a97af826040518080602001828103825283818151815260200191508051906020019080838360005b8381101561049a57808201518184015260208101905061047f565b50505050905090810190601f1680156104c75780820380516001836020036101000a031916815260200191505b509250505060405180910390a1505050565b60068054600181600116156101000203166002900480601f01602080910402602001604051908101604052809291908181526020018280546001816001161561010002031660029004801561056f5780601f106105445761010080835404028352916020019161056f565b820191906000526020600020905b81548152906001019060200180831161055257829003601f168201915b505050505081565b60003073ffffffffffffffffffffffffffffffffffffffff16316105cf6040805190810160405280600381526020017f55524c0000000000000000000000000000000000000000000000000000000000815250610f76565b111561068e577f621c2856e3b87f81235f8ac8a22bbb40a0142961960710d00b2b6c380902b57e60405180806020018281038252604b8152602001807f4f7261636c697a6520717565727920776173204e4f542073656e742c20706c6581526020017f6173652061646420736f6d652045544820746f20636f76657220666f7220746881526020017f652071756572792066656500000000000000000000000000000000000000000081525060600191505060405180910390a1610814565b61074f6040805190810160405280600381526020017f55524c0000000000000000000000000000000000000000000000000000000000815250608060405190810160405280604981526020017f68747470733a2f2f6d696e2d6170692e63727970746f636f6d706172652e636f81526020017f6d2f646174612f70726963653f6673796d3d544b4e267473796d733d4554482681526020017f7369676e3d747275650000000000000000000000000000000000000000000000815250611346565b9050600160056000836000191660001916815260200190815260200160002060006101000a81548160ff0219169083151502179055507f621c2856e3b87f81235f8ac8a22bbb40a0142961960710d00b2b6c380902b57e6040518080602001828103825260368152602001807f4f7261636c697a65207175657279207761732073656e742c207374616e64696e81526020017f6720627920666f722074686520616e737765722e2e2e0000000000000000000081525060400191505060405180910390a15b50565b6000806000809054906101000a900473ffffffffffffffffffffffffffffffffffffffff1673ffffffffffffffffffffffffffffffffffffffff161480610887575060006108856000809054906101000a900473ffffffffffffffffffffffffffffffffffffffff166118e8565b145b156108985761089660006118f3565b505b6000809054906101000a900473ffffffffffffffffffffffffffffffffffffffff1673ffffffffffffffffffffffffffffffffffffffff166338cc48316040518163ffffffff167c0100000000000000000000000000000000000000000000000000000000028152600401602060405180830381600087803b15801561091d57600080fd5b505af1158015610931573d6000803e3d6000fd5b505050506040513d602081101561094757600080fd5b810190808051906020019092919050505073ffffffffffffffffffffffffffffffffffffffff16600160009054906101000a900473ffffffffffffffffffffffffffffffffffffffff1673ffffffffffffffffffffffffffffffffffffffff16141515610aaf576000809054906101000a900473ffffffffffffffffffffffffffffffffffffffff1673ffffffffffffffffffffffffffffffffffffffff166338cc48316040518163ffffffff167c0100000000000000000000000000000000000000000000000000000000028152600401602060405180830381600087803b158015610a3357600080fd5b505af1158015610a47573d6000803e3d6000fd5b505050506040513d6020811015610a5d57600080fd5b8101908080519060200190929190505050600160006101000a81548173ffffffffffffffffffffffffffffffffffffffff021916908373ffffffffffffffffffffffffffffffffffffffff1602179055505b600160009054906101000a900473ffffffffffffffffffffffffffffffffffffffff1673ffffffffffffffffffffffffffffffffffffffff1663c281d19e6040518163ffffffff167c0100000000000000000000000000000000000000000000000000000000028152600401602060405180830381600087803b158015610b3557600080fd5b505af1158015610b49573d6000803e3d6000fd5b505050506040513d6020811015610b5f57600080fd5b8101908080519060200190929190505050905090565b6000806060600060608060606000808a6001815181101515610b9357fe5b9060200101517f010000000000000000000000000000000000000000000000000000000000000090047f0100000000000000000000000000000000000000000000000000000000000000027f010000000000000000000000000000000000000000000000000000000000000090049750876040519080825280601f01601f191660200182016040528015610c365781602001602082028038833980820191505090505b509650610c488b60028a8a6000611904565b96508a60018960020101815181101515610c5e57fe5b9060200101517f010000000000000000000000000000000000000000000000000000000000000090047f0100000000000000000000000000000000000000000000000000000000000000027f010000000000000000000000000000000000000000000000000000000000000090046101008c8a600201815181101515610ce057fe5b9060200101517f010000000000000000000000000000000000000000000000000000000000000090047f0100000000000000000000000000000000000000000000000000000000000000027f0100000000000000000000000000000000000000000000000000000000000000900402019550856040519080825280601f01601f191660200182016040528015610d855781602001602082028038833980820191505090505b509450610d998b8960040188886000611904565b9450601e6040519080825280601f01601f191660200182016040528015610dcf5781602001602082028038833980820191505090505b509350610de2856005601e876000611904565b9350603486036040519080825280601f01601f191660200182016040528015610e1a5781602001602082028038833980820191505090505b509250610ec86002866040518082805190602001908083835b602083101515610e585780518252602082019150602081019050602083039250610e33565b6001836020036101000a0380198251168184511680821785525050505050509050019150506020604051808303816000865af1158015610e9c573d6000803e3d6000fd5b5050506040513d6020811015610eb157600080fd5b810190808051906020019092919050505088611964565b8092508193505050896040518082805190602001908083835b602083101515610f065780518252602082019150602081019050602083039250610ee1565b6001836020036101000a03801982511681845116808217855250505050505090500191505060405180910390206001900473ffffffffffffffffffffffffffffffffffffffff168173ffffffffffffffffffffffffffffffffffffffff1614985050505050505050509392505050565b6000806000809054906101000a900473ffffffffffffffffffffffffffffffffffffffff1673ffffffffffffffffffffffffffffffffffffffff161480610fe657506000610fe46000809054906101000a900473ffffffffffffffffffffffffffffffffffffffff166118e8565b145b15610ff757610ff560006118f3565b505b6000809054906101000a900473ffffffffffffffffffffffffffffffffffffffff1673ffffffffffffffffffffffffffffffffffffffff166338cc48316040518163ffffffff167c0100000000000000000000000000000000000000000000000000000000028152600401602060405180830381600087803b15801561107c57600080fd5b505af1158015611090573d6000803e3d6000fd5b505050506040513d60208110156110a657600080fd5b810190808051906020019092919050505073ffffffffffffffffffffffffffffffffffffffff16600160009054906101000a900473ffffffffffffffffffffffffffffffffffffffff1673ffffffffffffffffffffffffffffffffffffffff1614151561120e576000809054906101000a900473ffffffffffffffffffffffffffffffffffffffff1673ffffffffffffffffffffffffffffffffffffffff166338cc48316040518163ffffffff167c0100000000000000000000000000000000000000000000000000000000028152600401602060405180830381600087803b15801561119257600080fd5b505af11580156111a6573d6000803e3d6000fd5b505050506040513d60208110156111bc57600080fd5b8101908080519060200190929190505050600160006101000a81548173ffffffffffffffffffffffffffffffffffffffff021916908373ffffffffffffffffffffffffffffffffffffffff1602179055505b600160009054906101000a900473ffffffffffffffffffffffffffffffffffffffff1673ffffffffffffffffffffffffffffffffffffffff1663524f3889836040518263ffffffff167c01000000000000000000000000000000000000000000000000000000000281526004018080602001828103825283818151815260200191508051906020019080838360005b838110156112b857808201518184015260208101905061129d565b50505050905090810190601f1680156112e55780820380516001836020036101000a031916815260200191505b5092505050602060405180830381600087803b15801561130457600080fd5b505af1158015611318573d6000803e3d6000fd5b505050506040513d602081101561132e57600080fd5b81019080805190602001909291905050509050919050565b60008060008060009054906101000a900473ffffffffffffffffffffffffffffffffffffffff1673ffffffffffffffffffffffffffffffffffffffff1614806113b8575060006113b66000809054906101000a900473ffffffffffffffffffffffffffffffffffffffff166118e8565b145b156113c9576113c760006118f3565b505b6000809054906101000a900473ffffffffffffffffffffffffffffffffffffffff1673ffffffffffffffffffffffffffffffffffffffff166338cc48316040518163ffffffff167c0100000000000000000000000000000000000000000000000000000000028152600401602060405180830381600087803b15801561144e57600080fd5b505af1158015611462573d6000803e3d6000fd5b505050506040513d602081101561147857600080fd5b810190808051906020019092919050505073ffffffffffffffffffffffffffffffffffffffff16600160009054906101000a900473ffffffffffffffffffffffffffffffffffffffff1673ffffffffffffffffffffffffffffffffffffffff161415156115e0576000809054906101000a900473ffffffffffffffffffffffffffffffffffffffff1673ffffffffffffffffffffffffffffffffffffffff166338cc48316040518163ffffffff167c0100000000000000000000000000000000000000000000000000000000028152600401602060405180830381600087803b15801561156457600080fd5b505af1158015611578573d6000803e3d6000fd5b505050506040513d602081101561158e57600080fd5b8101908080519060200190929190505050600160006101000a81548173ffffffffffffffffffffffffffffffffffffffff021916908373ffffffffffffffffffffffffffffffffffffffff1602179055505b600160009054906101000a900473ffffffffffffffffffffffffffffffffffffffff1673ffffffffffffffffffffffffffffffffffffffff1663524f3889856040518263ffffffff167c01000000000000000000000000000000000000000000000000000000000281526004018080602001828103825283818151815260200191508051906020019080838360005b8381101561168a57808201518184015260208101905061166f565b50505050905090810190601f1680156116b75780820380516001836020036101000a031916815260200191505b5092505050602060405180830381600087803b1580156116d657600080fd5b505af11580156116ea573d6000803e3d6000fd5b505050506040513d602081101561170057600080fd5b8101908080519060200190929190505050905062030d403a02670de0b6b3a76400000181111561173657600060010291506118e1565b600160009054906101000a900473ffffffffffffffffffffffffffffffffffffffff1673ffffffffffffffffffffffffffffffffffffffff1663adf59f9982600087876040518563ffffffff167c0100000000000000000000000000000000000000000000000000000000028152600401808481526020018060200180602001838103835285818151815260200191508051906020019080838360005b838110156117ee5780820151818401526020810190506117d3565b50505050905090810190601f16801561181b5780820380516001836020036101000a031916815260200191505b50838103825284818151815260200191508051906020019080838360005b83811015611854578082015181840152602081019050611839565b50505050905090810190601f1680156118815780820380516001836020036101000a031916815260200191505b50955050505050506020604051808303818588803b1580156118a257600080fd5b505af11580156118b6573d6000803e3d6000fd5b50505050506040513d60208110156118cd57600080fd5b810190808051906020019092919050505091505b5092915050565b6000813b9050919050565b60006118fd6119f8565b9050919050565b6060600080600084870192508286511015151561192057600080fd5b8760200191508460200190505b868860200101821015611955578189015180828801525060208201915060208101905061192d565b85935050505095945050505050565b60008060008060006041865114151561198657600080809050945094506119ee565b6020860151925060408601519150606086015160001a9050601b8160ff1610156119b157601b810190505b601b8160ff16141580156119c95750601c8160ff1614155b156119dd57600080809050945094506119ee565b6119e987828585611e87565b945094505b5050509250929050565b600080611a18731d3b2638a7cc9f2cb3d298a3da7a90b67e5506ed6118e8565b1115611ab957731d3b2638a7cc9f2cb3d298a3da7a90b67e5506ed6000806101000a81548173ffffffffffffffffffffffffffffffffffffffff021916908373ffffffffffffffffffffffffffffffffffffffff160217905550611ab06040805190810160405280600b81526020017f6574685f6d61696e6e6574000000000000000000000000000000000000000000815250611ecb565b60019050611e84565b6000611ad873c03a2615d5efaf5f49f60b7bb6583eaec212fdf16118e8565b1115611b795773c03a2615d5efaf5f49f60b7bb6583eaec212fdf16000806101000a81548173ffffffffffffffffffffffffffffffffffffffff021916908373ffffffffffffffffffffffffffffffffffffffff160217905550611b706040805190810160405280600c81526020017f6574685f726f707374656e330000000000000000000000000000000000000000815250611ecb565b60019050611e84565b6000611b9873b7a07bcf2ba2f2703b24c0691b5278999c59ac7e6118e8565b1115611c395773b7a07bcf2ba2f2703b24c0691b5278999c59ac7e6000806101000a81548173ffffffffffffffffffffffffffffffffffffffff021916908373ffffffffffffffffffffffffffffffffffffffff160217905550611c306040805190810160405280600981526020017f6574685f6b6f76616e0000000000000000000000000000000000000000000000815250611ecb565b60019050611e84565b6000611c5873146500cfd35b22e4a392fe0adc06de1a1368ed486118e8565b1115611cf95773146500cfd35b22e4a392fe0adc06de1a1368ed486000806101000a81548173ffffffffffffffffffffffffffffffffffffffff021916908373ffffffffffffffffffffffffffffffffffffffff160217905550611cf06040805190810160405280600b81526020017f6574685f72696e6b656279000000000000000000000000000000000000000000815250611ecb565b60019050611e84565b6000611d18736f485c8bf6fc43ea212e93bbf8ce046c7f1cb4756118e8565b1115611d7b57736f485c8bf6fc43ea212e93bbf8ce046c7f1cb4756000806101000a81548173ffffffffffffffffffffffffffffffffffffffff021916908373ffffffffffffffffffffffffffffffffffffffff16021790555060019050611e84565b6000611d9a7320e12a1f859b3feae5fb2a0a32c18f5a65555bbf6118e8565b1115611dfd577320e12a1f859b3feae5fb2a0a32c18f5a65555bbf6000806101000a81548173ffffffffffffffffffffffffffffffffffffffff021916908373ffffffffffffffffffffffffffffffffffffffff16021790555060019050611e84565b6000611e1c7351efaf4c8b3c9afbd5ab9f4bbc82784ab6ef8faa6118e8565b1115611e7f577351efaf4c8b3c9afbd5ab9f4bbc82784ab6ef8faa6000806101000a81548173ffffffffffffffffffffffffffffffffffffffff021916908373ffffffffffffffffffffffffffffffffffffffff16021790555060019050611e84565b600090505b90565b60008060008060405188815287602082015286604082015285606082015260208160808360006001610bb8f192508051915050818193509350505094509492505050565b8060029080519060200190611ee1929190611ee5565b5050565b828054600181600116156101000203166002900490600052602060002090601f016020900481019282601f10611f2657805160ff1916838001178555611f54565b82800160010185558215611f54579182015b82811115611f53578251825591602001919060010190611f38565b5b509050611f619190611f65565b5090565b611f8791905b80821115611f83576000816000905550600101611f6b565b5090565b905600a165627a7a7230582094b7c1b863b57f810304ff131372fc539723e745bad78a8ddb6c22ef55e2094a0029",
  "source": "pragma solidity ^0.4.18;\n\n/* import \"github.com/oraclize/ethereum-api/oraclizeAPI.sol\"; */\nimport './OraclizeAPI.sol';\n\ncontract TKN_Orcacle is usingOraclize{\n\n    event LogConstructorInitiated(string nextStep);\n    event LogRateUpdated(string price);\n    event LogNewOraclizeQuery(string description);\n\n    mapping (bytes32 => bool) validIDs;\n    string public TKNETH;\n\n    bytes cc_pubkey;\n\n    modifier onlyOraclize {\n        require(msg.sender == oraclize_cbAddress());\n        _;\n    }\n\n    constructor() public payable {\n        OAR = OraclizeAddrResolverI(0x6f485C8BF6fc43eA212E93BBF8ce046C7f1cb475);\n        oraclize_setProof(proofType_Native);\n        cc_pubkey = hex\"a0f4f688350018ad1b9785991c0bde5f704b005dc79972b114dbed4a615a983710bfc647ebe5a320daa28771dce6a2d104f5efa2e4a85ba3760b76d46f8571ca\";\n        // updateRate();\n        emit LogConstructorInitiated(\"Constructor was initiated. Call 'updateRate()' to send the Oraclize Query.\");\n\n    }\n\n    function nativeProof_verify(string result, bytes proof, bytes pubkey) private returns (bool) {\n          uint sig_len = uint(proof[1]);\n          bytes memory sig = new bytes(sig_len);\n          sig = copyBytes(proof, 2, sig_len, sig, 0);\n          uint headers_len = uint(proof[2+sig_len])*256 + uint(proof[2+sig_len+1]);\n          bytes memory headers = new bytes(headers_len);\n          headers = copyBytes(proof, 4+sig_len, headers_len, headers, 0);\n          bytes memory dateHeader = new bytes(30);\n          dateHeader = copyBytes(headers, 5, 30, dateHeader, 0);\n          bytes memory digest = new bytes(headers_len-52); //len(\"digest: SHA-256=\")=16\n          /* digest = copyBytes(headers, 52, headers_len-52, digest, 0); */\n          //Freshness\n          /* bool dateok = isFresh(string(dateHeader));\n          if (!dateok) return false; */\n          //Integrity\n          /* bool digestok = (sha3(sha256(result)) == sha3(b64decode(digest))); */\n          /* if (!digestok) return false; */\n          //Authenticity\n          bool sigok;\n          address signer;\n          (sigok, signer) = ecrecovery(sha256(headers), sig);\n          return (signer == address(sha3(pubkey)));\n      }\n\n    function __callback(bytes32 queryId, string result, bytes proof) public onlyOraclize{\n        require(validIDs[queryId]);\n        if ((proof.length > 0) && (nativeProof_verify(result, proof, cc_pubkey))) {\n          TKNETH = result;\n          delete validIDs[queryId];\n        }\n        else{\n          TKNETH = \"ERROR\";\n        }\n        emit LogRateUpdated(result);\n    }\n\n    function updateRate() public payable{\n        if (oraclize_getPrice(\"URL\") > address(this).balance){\n            emit LogNewOraclizeQuery(\"Oraclize query was NOT sent, please add some ETH to cover for the query fee\");\n        }\n        else{\n            bytes32 queryId = oraclize_query(\"URL\",\"https://min-api.cryptocompare.com/data/price?fsym=TKN&tsyms=ETH&sign=true\");\n            validIDs[queryId] = true;\n            emit LogNewOraclizeQuery(\"Oraclize query was sent, standing by for the answer...\");\n        }\n    }\n\n}\n",
  "sourcePath": "/Users/yannis/Desktop/Token/smart-contracts/price-feed/contracts/PriceFeed.sol",
  "compiler": {
    "name": "solc",
    "version": "0.4.24+commit.e67f0147.Emscripten.clang"
  },
  "schemaVersion": "2.0.1",
  "updatedAt": "2018-07-31T10:20:38.323Z"
}